{
  "contractName": "Distributer",
  "abi": [
    {
      "inputs": [
        {
          "name": "BatchID",
          "type": "address"
        },
        {
          "name": "Sender",
          "type": "address"
        },
        {
          "name": "Shipper",
          "type": "address"
        },
        {
          "name": "Receiver",
          "type": "address"
        }
      ],
      "payable": false,
      "stateMutability": "nonpayable",
      "type": "constructor"
    },
    {
      "constant": false,
      "inputs": [
        {
          "name": "BatchID",
          "type": "address"
        },
        {
          "name": "Shipper",
          "type": "address"
        }
      ],
      "name": "pickDP",
      "outputs": [],
      "payable": false,
      "stateMutability": "nonpayable",
      "type": "function"
    },
    {
      "constant": false,
      "inputs": [
        {
          "name": "BatchID",
          "type": "address"
        },
        {
          "name": "Receiver",
          "type": "address"
        }
      ],
      "name": "recieveDP",
      "outputs": [],
      "payable": false,
      "stateMutability": "nonpayable",
      "type": "function"
    },
    {
      "constant": true,
      "inputs": [],
      "name": "getBatchIDStatus",
      "outputs": [
        {
          "name": "",
          "type": "uint256"
        }
      ],
      "payable": false,
      "stateMutability": "view",
      "type": "function"
    }
  ],
  "bytecode": "0x608060405234801561001057600080fd5b506040516080806107b58339810180604052608081101561003057600080fd5b8101908080519060200190929190805190602001909291908051906020019092919080519060200190929190505050826000806101000a81548173ffffffffffffffffffffffffffffffffffffffff021916908373ffffffffffffffffffffffffffffffffffffffff16021790555083600160006101000a81548173ffffffffffffffffffffffffffffffffffffffff021916908373ffffffffffffffffffffffffffffffffffffffff16021790555082600260006101000a81548173ffffffffffffffffffffffffffffffffffffffff021916908373ffffffffffffffffffffffffffffffffffffffff16021790555081600360006101000a81548173ffffffffffffffffffffffffffffffffffffffff021916908373ffffffffffffffffffffffffffffffffffffffff16021790555080600460006101000a81548173ffffffffffffffffffffffffffffffffffffffff021916908373ffffffffffffffffffffffffffffffffffffffff160217905550600060028111156101b057fe5b600460146101000a81548160ff021916908360028111156101cd57fe5b0217905550505050506105d0806101e56000396000f3fe608060405260043610610057576000357c0100000000000000000000000000000000000000000000000000000000900463ffffffff16806332a60e001461005c578063d2f3fcc7146100cd578063d39ff0e7146100f8575b600080fd5b34801561006857600080fd5b506100cb6004803603604081101561007f57600080fd5b81019080803573ffffffffffffffffffffffffffffffffffffffff169060200190929190803573ffffffffffffffffffffffffffffffffffffffff169060200190929190505050610169565b005b3480156100d957600080fd5b506100e2610339565b6040518082815260200191505060405180910390f35b34801561010457600080fd5b506101676004803603604081101561011b57600080fd5b81019080803573ffffffffffffffffffffffffffffffffffffffff169060200190929190803573ffffffffffffffffffffffffffffffffffffffff16906020019092919050505061035b565b005b600460009054906101000a900473ffffffffffffffffffffffffffffffffffffffff1673ffffffffffffffffffffffffffffffffffffffff168173ffffffffffffffffffffffffffffffffffffffff16141515610254576040517f08c379a00000000000000000000000000000000000000000000000000000000081526004018080602001828103825260308152602001807f4f6e6c79204173736f6369617465642072656365697665722063616e2063616c81526020017f6c20746869732066756e6374696f6e2e0000000000000000000000000000000081525060400191505060405180910390fd5b60028081111561026057fe5b600460146101000a81548160ff0219169083600281111561027d57fe5b02179055508173ffffffffffffffffffffffffffffffffffffffff16633a3f3cc3826040518263ffffffff167c0100000000000000000000000000000000000000000000000000000000028152600401808273ffffffffffffffffffffffffffffffffffffffff1673ffffffffffffffffffffffffffffffffffffffff168152602001915050600060405180830381600087803b15801561031d57600080fd5b505af1158015610331573d6000803e3d6000fd5b505050505050565b6000600460149054906101000a900460ff16600281111561035657fe5b905090565b600360009054906101000a900473ffffffffffffffffffffffffffffffffffffffff1673ffffffffffffffffffffffffffffffffffffffff168173ffffffffffffffffffffffffffffffffffffffff16141515610446576040517f08c379a000000000000000000000000000000000000000000000000000000000815260040180806020018281038252602f8152602001807f4f6e6c79204173736f63696174656420736869707065722063616e2063616c6c81526020017f20746869732066756e6374696f6e2e000000000000000000000000000000000081525060400191505060405180910390fd5b6001600281111561045357fe5b600460146101000a81548160ff0219169083600281111561047057fe5b02179055508173ffffffffffffffffffffffffffffffffffffffff1663a19ffd60600460009054906101000a900473ffffffffffffffffffffffffffffffffffffffff16600260009054906101000a900473ffffffffffffffffffffffffffffffffffffffff166040518363ffffffff167c0100000000000000000000000000000000000000000000000000000000028152600401808373ffffffffffffffffffffffffffffffffffffffff1673ffffffffffffffffffffffffffffffffffffffff1681526020018273ffffffffffffffffffffffffffffffffffffffff1673ffffffffffffffffffffffffffffffffffffffff16815260200192505050600060405180830381600087803b15801561058857600080fd5b505af115801561059c573d6000803e3d6000fd5b50505050505056fea165627a7a72305820e231c605fc455748e59fc6ca1f5387e59a7bd3bbcd89f03f4b8e667f11c7f24e0029",
  "source": "pragma solidity >=0.4.25 <0.6.0;\r\n\r\nimport './Medicine.sol';\r\n\r\ncontract Distributer{\r\n\r\n    address Owner;\r\n\r\n    enum packageStatus { atcreator, picked, delivered}\r\n\r\n    address batchid;\r\n    address sender;\r\n    address shipper;\r\n    address receiver;\r\n    packageStatus status;\r\n\r\n    constructor(\r\n        address BatchID,\r\n        address Sender,\r\n        address Shipper,\r\n        address Receiver\r\n    ) public {\r\n        Owner = Sender;\r\n        batchid = BatchID;\r\n        sender = Sender;\r\n        shipper = Shipper;\r\n        receiver = Receiver;\r\n        status = packageStatus(0);\r\n    }\r\n\r\n    function pickDP(address BatchID,address Shipper) public {\r\n        require(\r\n            Shipper == shipper,\r\n            \"Only Associated shipper can call this function.\"\r\n        );\r\n        status = packageStatus(1);\r\n\r\n        Medicine(BatchID).sendDP(\r\n            receiver,\r\n            sender\r\n        );\r\n    }\r\n\r\n    function recieveDP(address BatchID,address Receiver) public {\r\n        require(\r\n            Receiver == receiver,\r\n            \"Only Associated receiver can call this function.\"\r\n        );\r\n        status = packageStatus(2);\r\n\r\n        Medicine(BatchID).recieveDP(\r\n            Receiver\r\n        );\r\n    }\r\n\r\n    function getBatchIDStatus() public view returns(uint) {\r\n        return uint(status);\r\n    }\r\n}",
  "sourcePath": "C:\\Documents\\GitHub\\BETA-TESTERS\\Web\\src\\contracts\\Distributer.sol",
  "compiler": {
    "name": "solc",
    "version": "0.5.0+commit.1d4f565a.Emscripten.clang"
  },
  "schemaVersion": "3.0.2",
  "updatedAt": "2019-10-20T02:23:34.297Z",
  "devdoc": {
    "methods": {}
  },
  "userdoc": {
    "methods": {}
  }
}