{
  "contractName": "Medicine",
  "abi": [
    {
      "inputs": [
        {
          "name": "Manu",
          "type": "address"
        },
        {
          "name": "Des",
          "type": "bytes32"
        },
        {
          "name": "RM",
          "type": "bytes32"
        },
        {
          "name": "Quant",
          "type": "uint256"
        },
        {
          "name": "Shpr",
          "type": "address"
        },
        {
          "name": "Rcvr",
          "type": "address"
        }
      ],
      "payable": false,
      "stateMutability": "nonpayable",
      "type": "constructor"
    },
    {
      "anonymous": false,
      "inputs": [
        {
          "indexed": true,
          "name": "BatchID",
          "type": "address"
        },
        {
          "indexed": true,
          "name": "Shipper",
          "type": "address"
        },
        {
          "indexed": true,
          "name": "Reciever",
          "type": "address"
        },
        {
          "indexed": false,
          "name": "TransporterType",
          "type": "uint256"
        },
        {
          "indexed": false,
          "name": "Status",
          "type": "uint256"
        }
      ],
      "name": "ShipmentUpdate",
      "type": "event"
    },
    {
      "constant": true,
      "inputs": [],
      "name": "getMedicineInfo",
      "outputs": [
        {
          "name": "",
          "type": "address"
        },
        {
          "name": "",
          "type": "bytes32"
        },
        {
          "name": "",
          "type": "bytes32"
        },
        {
          "name": "",
          "type": "uint256"
        },
        {
          "name": "",
          "type": "address"
        }
      ],
      "payable": false,
      "stateMutability": "view",
      "type": "function"
    },
    {
      "constant": true,
      "inputs": [],
      "name": "getWDP",
      "outputs": [
        {
          "name": "WDP",
          "type": "address[2]"
        }
      ],
      "payable": false,
      "stateMutability": "view",
      "type": "function"
    },
    {
      "constant": true,
      "inputs": [],
      "name": "getBatchIDStatus",
      "outputs": [
        {
          "name": "",
          "type": "uint256"
        }
      ],
      "payable": false,
      "stateMutability": "view",
      "type": "function"
    },
    {
      "constant": false,
      "inputs": [
        {
          "name": "shpr",
          "type": "address"
        }
      ],
      "name": "pickPackage",
      "outputs": [],
      "payable": false,
      "stateMutability": "nonpayable",
      "type": "function"
    },
    {
      "constant": false,
      "inputs": [
        {
          "name": "receiver",
          "type": "address"
        },
        {
          "name": "sender",
          "type": "address"
        }
      ],
      "name": "sendDP",
      "outputs": [],
      "payable": false,
      "stateMutability": "nonpayable",
      "type": "function"
    },
    {
      "constant": false,
      "inputs": [
        {
          "name": "reciever",
          "type": "address"
        }
      ],
      "name": "recieveDP",
      "outputs": [],
      "payable": false,
      "stateMutability": "nonpayable",
      "type": "function"
    }
  ],
  "bytecode": "0x608060405234801561001057600080fd5b5060405160c080610ac6833981018060405260c081101561003057600080fd5b81019080805190602001909291908051906020019092919080519060200190929190805190602001909291908051906020019092919080519060200190929190505050856000806101000a81548173ffffffffffffffffffffffffffffffffffffffff021916908373ffffffffffffffffffffffffffffffffffffffff16021790555085600560006101000a81548173ffffffffffffffffffffffffffffffffffffffff021916908373ffffffffffffffffffffffffffffffffffffffff16021790555084600181905550836002819055508260038190555081600460006101000a81548173ffffffffffffffffffffffffffffffffffffffff021916908373ffffffffffffffffffffffffffffffffffffffff16021790555080600660006101000a81548173ffffffffffffffffffffffffffffffffffffffff021916908373ffffffffffffffffffffffffffffffffffffffff160217905550505050505050610926806101a06000396000f3fe608060405260043610610078576000357c0100000000000000000000000000000000000000000000000000000000900463ffffffff16806301a9a23e1461007d5780633a3f3cc3146100d0578063638e9a3d14610121578063a19ffd6014610172578063d2f3fcc7146101e3578063e002c8a51461020e575b600080fd5b34801561008957600080fd5b506100926102ad565b6040518082600260200280838360005b838110156100bd5780820151818401526020810190506100a2565b5050505090500191505060405180910390f35b3480156100dc57600080fd5b5061011f600480360360208110156100f357600080fd5b81019080803573ffffffffffffffffffffffffffffffffffffffff16906020019092919050505061036b565b005b34801561012d57600080fd5b506101706004803603602081101561014457600080fd5b81019080803573ffffffffffffffffffffffffffffffffffffffff169060200190929190505050610461565b005b34801561017e57600080fd5b506101e16004803603604081101561019557600080fd5b81019080803573ffffffffffffffffffffffffffffffffffffffff169060200190929190803573ffffffffffffffffffffffffffffffffffffffff1690602001909291905050506106ef565b005b3480156101ef57600080fd5b506101f861084e565b6040518082815260200191505060405180910390f35b34801561021a57600080fd5b50610223610870565b604051808673ffffffffffffffffffffffffffffffffffffffff1673ffffffffffffffffffffffffffffffffffffffff1681526020018581526020018481526020018381526020018273ffffffffffffffffffffffffffffffffffffffff1673ffffffffffffffffffffffffffffffffffffffff1681526020019550505050505060405180910390f35b6102b56108d8565b6040805190810160405280600660009054906101000a900473ffffffffffffffffffffffffffffffffffffffff1673ffffffffffffffffffffffffffffffffffffffff1673ffffffffffffffffffffffffffffffffffffffff168152602001600760009054906101000a900473ffffffffffffffffffffffffffffffffffffffff1673ffffffffffffffffffffffffffffffffffffffff1673ffffffffffffffffffffffffffffffffffffffff16815250905090565b8073ffffffffffffffffffffffffffffffffffffffff16600760009054906101000a900473ffffffffffffffffffffffffffffffffffffffff1673ffffffffffffffffffffffffffffffffffffffff16141515610430576040517f08c379a000000000000000000000000000000000000000000000000000000000815260040180806020018281038252601d8152602001807f5468697320506861726d61206973206e6f74204173736f63696174656400000081525060200191505060405180910390fd5b60048081111561043c57fe5b600760146101000a81548160ff0219169083600481111561045957fe5b021790555050565b600460009054906101000a900473ffffffffffffffffffffffffffffffffffffffff1673ffffffffffffffffffffffffffffffffffffffff168173ffffffffffffffffffffffffffffffffffffffff1614151561054c576040517f08c379a000000000000000000000000000000000000000000000000000000000815260040180806020018281038252602d8152602001807f4f6e6c79204173736f636961746520536869707065722063616e2063616c6c2081526020017f746869732066756e6374696f6e0000000000000000000000000000000000000081525060400191505060405180910390fd5b6000600481111561055957fe5b600481111561056457fe5b600760149054906101000a900460ff16600481111561057f57fe5b1415156105f4576040517f08c379a000000000000000000000000000000000000000000000000000000000815260040180806020018281038252601c8152602001807f5061636b616765206d75737420626520617420537570706c6965722e0000000081525060200191505060405180910390fd5b6001600481111561060157fe5b600760146101000a81548160ff0219169083600481111561061e57fe5b0217905550600660009054906101000a900473ffffffffffffffffffffffffffffffffffffffff1673ffffffffffffffffffffffffffffffffffffffff16600460009054906101000a900473ffffffffffffffffffffffffffffffffffffffff1673ffffffffffffffffffffffffffffffffffffffff163073ffffffffffffffffffffffffffffffffffffffff167ff3ef229a52006ad83a5453cd9c02c79c841ccfdb65ad3f748788ab0ecf66296c600180604051808381526020018281526020019250505060405180910390a450565b8073ffffffffffffffffffffffffffffffffffffffff16600660009054906101000a900473ffffffffffffffffffffffffffffffffffffffff1673ffffffffffffffffffffffffffffffffffffffff161415156107da576040517f08c379a00000000000000000000000000000000000000000000000000000000081526004018080602001828103825260238152602001807f74686973204469737472696275746572206973206e6f74204173736f6369617481526020017f65642e000000000000000000000000000000000000000000000000000000000081525060400191505060405180910390fd5b81600760006101000a81548173ffffffffffffffffffffffffffffffffffffffff021916908373ffffffffffffffffffffffffffffffffffffffff1602179055506003600481111561082857fe5b600760146101000a81548160ff0219169083600481111561084557fe5b02179055505050565b6000600760149054906101000a900460ff16600481111561086b57fe5b905090565b6000806000806000600560009054906101000a900473ffffffffffffffffffffffffffffffffffffffff16600154600254600354600460009054906101000a900473ffffffffffffffffffffffffffffffffffffffff16945094509450945094509091929394565b604080519081016040528060029060208202803883398082019150509050509056fea165627a7a72305820595fa59eb612cca5be90deeb06b45a8acad008ef2eac6138c424f438ad3ecb960029",
  "source": "pragma solidity >=0.4.25 < 0.6.0;\r\n\r\nimport './RawMaterial.sol';\r\ncontract Medicine{\r\n\r\n    address Owner;\r\n\r\n    enum medicineStatus {\r\n        atcreator,\r\n        picked4D,\r\n        deliveredatD,\r\n        picked4P,\r\n        deliveredatP\r\n    }\r\n\r\n    bytes32 description;\r\n    bytes32 rawmaterials;\r\n    uint quantity;\r\n    address shipper;\r\n    address manufacturer;\r\n    address distributer;\r\n    address pharma;\r\n    medicineStatus status;\r\n\r\n    event ShipmentUpdate(\r\n        address indexed BatchID,\r\n        address indexed Shipper,\r\n        address indexed Reciever,\r\n        uint TransporterType,\r\n        uint Status\r\n    );\r\n\r\n    constructor(\r\n        address Manu,\r\n        bytes32 Des,\r\n        bytes32 RM,\r\n        uint Quant,\r\n        address Shpr,\r\n        address Rcvr\r\n    ) public {\r\n        Owner = Manu;\r\n        manufacturer = Manu;\r\n        description = Des;\r\n        rawmaterials = RM;\r\n        quantity = Quant;\r\n        shipper = Shpr;\r\n        distributer = Rcvr;\r\n    }\r\n\r\n    function getMedicineInfo () public view returns(address, bytes32, bytes32, uint, address){\r\n        return(\r\n            manufacturer,\r\n            description,\r\n            rawmaterials,\r\n            quantity,\r\n            shipper\r\n        );\r\n    }\r\n\r\n    function getWDP() public view returns(address[2] memory WDP) {\r\n        return ([distributer,pharma]);\r\n    }\r\n\r\n    function getBatchIDStatus() public view returns(uint) {\r\n        return uint(status);\r\n    }\r\n\r\n    function pickPackage(address shpr) public {\r\n        require(\r\n            shpr == shipper,\r\n            \"Only Associate Shipper can call this function\"\r\n        );\r\n        require(\r\n            status == medicineStatus(0),\r\n            \"Package must be at Supplier.\"\r\n        );\r\n\r\n            status = medicineStatus(1);\r\n            emit ShipmentUpdate(address(this),shipper,distributer,1,1);\r\n    }\r\n\r\n    //function recievePackage()\r\n\r\n    function sendDP(address receiver,address sender) public {\r\n        require(\r\n            distributer == sender,\r\n            \"this Distributer is not Associated.\"\r\n        );\r\n        pharma = receiver;\r\n        status = medicineStatus(3);\r\n    }\r\n\r\n    function recieveDP(address reciever) public {\r\n        require(\r\n            pharma == reciever,\r\n            \"This Pharma is not Associated\"\r\n        );\r\n        status = medicineStatus(4);\r\n    }\r\n\r\n}",
  "sourcePath": "C:\\Documents\\GitHub\\BETA-TESTERS\\Web\\src\\contracts\\Medicine.sol",
  "compiler": {
    "name": "solc",
    "version": "0.5.0+commit.1d4f565a.Emscripten.clang"
  },
  "schemaVersion": "3.0.2",
  "updatedAt": "2019-10-19T18:52:27.056Z",
  "devdoc": {
    "methods": {}
  },
  "userdoc": {
    "methods": {}
  }
}