{
  "contractName": "Medicine",
  "abi": [
    {
      "inputs": [
        {
          "name": "Manu",
          "type": "address"
        },
        {
          "name": "Des",
          "type": "string"
        },
        {
          "name": "RM",
          "type": "string"
        },
        {
          "name": "Quant",
          "type": "uint256"
        },
        {
          "name": "Shpr",
          "type": "address"
        },
        {
          "name": "Rcvr",
          "type": "address"
        }
      ],
      "payable": false,
      "stateMutability": "nonpayable",
      "type": "constructor"
    },
    {
      "anonymous": false,
      "inputs": [
        {
          "indexed": true,
          "name": "BatchID",
          "type": "address"
        },
        {
          "indexed": true,
          "name": "Shipper",
          "type": "address"
        },
        {
          "indexed": true,
          "name": "Reciever",
          "type": "address"
        },
        {
          "indexed": false,
          "name": "TransporterType",
          "type": "uint256"
        },
        {
          "indexed": false,
          "name": "Status",
          "type": "uint256"
        }
      ],
      "name": "ShipmentUpdate",
      "type": "event"
    },
    {
      "constant": true,
      "inputs": [],
      "name": "getMedicineInfo",
      "outputs": [
        {
          "name": "",
          "type": "address"
        },
        {
          "name": "",
          "type": "string"
        },
        {
          "name": "",
          "type": "string"
        },
        {
          "name": "",
          "type": "uint256"
        },
        {
          "name": "",
          "type": "address"
        }
      ],
      "payable": false,
      "stateMutability": "view",
      "type": "function"
    },
    {
      "constant": true,
      "inputs": [],
      "name": "getWDP",
      "outputs": [
        {
          "name": "WDP",
          "type": "address[2]"
        }
      ],
      "payable": false,
      "stateMutability": "view",
      "type": "function"
    },
    {
      "constant": true,
      "inputs": [],
      "name": "getBatchIDStatus",
      "outputs": [
        {
          "name": "",
          "type": "uint256"
        }
      ],
      "payable": false,
      "stateMutability": "view",
      "type": "function"
    },
    {
      "constant": false,
      "inputs": [
        {
          "name": "shpr",
          "type": "address"
        }
      ],
      "name": "pickPackage",
      "outputs": [],
      "payable": false,
      "stateMutability": "nonpayable",
      "type": "function"
    },
    {
      "constant": false,
      "inputs": [
        {
          "name": "receiver",
          "type": "address"
        },
        {
          "name": "sender",
          "type": "address"
        }
      ],
      "name": "sendDP",
      "outputs": [],
      "payable": false,
      "stateMutability": "nonpayable",
      "type": "function"
    },
    {
      "constant": false,
      "inputs": [
        {
          "name": "reciever",
          "type": "address"
        }
      ],
      "name": "recieveDP",
      "outputs": [],
      "payable": false,
      "stateMutability": "nonpayable",
      "type": "function"
    }
  ],
  "bytecode": "0x60806040523480156200001157600080fd5b5060405162000e3738038062000e37833981018060405260c08110156200003757600080fd5b810190808051906020019092919080516401000000008111156200005a57600080fd5b828101905060208101848111156200007157600080fd5b81518560018202830111640100000000821117156200008f57600080fd5b50509291906020018051640100000000811115620000ac57600080fd5b82810190506020810184811115620000c357600080fd5b8151856001820283011164010000000082111715620000e157600080fd5b5050929190602001805190602001909291908051906020019092919080519060200190929190505050856000806101000a81548173ffffffffffffffffffffffffffffffffffffffff021916908373ffffffffffffffffffffffffffffffffffffffff16021790555085600560006101000a81548173ffffffffffffffffffffffffffffffffffffffff021916908373ffffffffffffffffffffffffffffffffffffffff1602179055508460019080519060200190620001a392919062000252565b508360029080519060200190620001bc92919062000252565b508260038190555081600460006101000a81548173ffffffffffffffffffffffffffffffffffffffff021916908373ffffffffffffffffffffffffffffffffffffffff16021790555080600660006101000a81548173ffffffffffffffffffffffffffffffffffffffff021916908373ffffffffffffffffffffffffffffffffffffffff16021790555050505050505062000301565b828054600181600116156101000203166002900490600052602060002090601f016020900481019282601f106200029557805160ff1916838001178555620002c6565b82800160010185558215620002c6579182015b82811115620002c5578251825591602001919060010190620002a8565b5b509050620002d59190620002d9565b5090565b620002fe91905b80821115620002fa576000816000905550600101620002e0565b5090565b90565b610b2680620003116000396000f3fe608060405260043610610078576000357c0100000000000000000000000000000000000000000000000000000000900463ffffffff16806301a9a23e1461007d5780633a3f3cc3146100d0578063638e9a3d14610121578063a19ffd6014610172578063d2f3fcc7146101e3578063e002c8a51461020e575b600080fd5b34801561008957600080fd5b50610092610377565b6040518082600260200280838360005b838110156100bd5780820151818401526020810190506100a2565b5050505090500191505060405180910390f35b3480156100dc57600080fd5b5061011f600480360360208110156100f357600080fd5b81019080803573ffffffffffffffffffffffffffffffffffffffff169060200190929190505050610435565b005b34801561012d57600080fd5b506101706004803603602081101561014457600080fd5b81019080803573ffffffffffffffffffffffffffffffffffffffff16906020019092919050505061052b565b005b34801561017e57600080fd5b506101e16004803603604081101561019557600080fd5b81019080803573ffffffffffffffffffffffffffffffffffffffff169060200190929190803573ffffffffffffffffffffffffffffffffffffffff1690602001909291905050506107b9565b005b3480156101ef57600080fd5b506101f8610918565b6040518082815260200191505060405180910390f35b34801561021a57600080fd5b5061022361093a565b604051808673ffffffffffffffffffffffffffffffffffffffff1673ffffffffffffffffffffffffffffffffffffffff16815260200180602001806020018581526020018473ffffffffffffffffffffffffffffffffffffffff1673ffffffffffffffffffffffffffffffffffffffff168152602001838103835287818151815260200191508051906020019080838360005b838110156102d15780820151818401526020810190506102b6565b50505050905090810190601f1680156102fe5780820380516001836020036101000a031916815260200191505b50838103825286818151815260200191508051906020019080838360005b8381101561033757808201518184015260208101905061031c565b50505050905090810190601f1680156103645780820380516001836020036101000a031916815260200191505b5097505050505050505060405180910390f35b61037f610ad8565b6040805190810160405280600660009054906101000a900473ffffffffffffffffffffffffffffffffffffffff1673ffffffffffffffffffffffffffffffffffffffff1673ffffffffffffffffffffffffffffffffffffffff168152602001600760009054906101000a900473ffffffffffffffffffffffffffffffffffffffff1673ffffffffffffffffffffffffffffffffffffffff1673ffffffffffffffffffffffffffffffffffffffff16815250905090565b8073ffffffffffffffffffffffffffffffffffffffff16600760009054906101000a900473ffffffffffffffffffffffffffffffffffffffff1673ffffffffffffffffffffffffffffffffffffffff161415156104fa576040517f08c379a000000000000000000000000000000000000000000000000000000000815260040180806020018281038252601d8152602001807f5468697320506861726d61206973206e6f74204173736f63696174656400000081525060200191505060405180910390fd5b60048081111561050657fe5b600760146101000a81548160ff0219169083600481111561052357fe5b021790555050565b600460009054906101000a900473ffffffffffffffffffffffffffffffffffffffff1673ffffffffffffffffffffffffffffffffffffffff168173ffffffffffffffffffffffffffffffffffffffff16141515610616576040517f08c379a000000000000000000000000000000000000000000000000000000000815260040180806020018281038252602d8152602001807f4f6e6c79204173736f636961746520536869707065722063616e2063616c6c2081526020017f746869732066756e6374696f6e0000000000000000000000000000000000000081525060400191505060405180910390fd5b6000600481111561062357fe5b600481111561062e57fe5b600760149054906101000a900460ff16600481111561064957fe5b1415156106be576040517f08c379a000000000000000000000000000000000000000000000000000000000815260040180806020018281038252601c8152602001807f5061636b616765206d75737420626520617420537570706c6965722e0000000081525060200191505060405180910390fd5b600160048111156106cb57fe5b600760146101000a81548160ff021916908360048111156106e857fe5b0217905550600660009054906101000a900473ffffffffffffffffffffffffffffffffffffffff1673ffffffffffffffffffffffffffffffffffffffff16600460009054906101000a900473ffffffffffffffffffffffffffffffffffffffff1673ffffffffffffffffffffffffffffffffffffffff163073ffffffffffffffffffffffffffffffffffffffff167ff3ef229a52006ad83a5453cd9c02c79c841ccfdb65ad3f748788ab0ecf66296c600180604051808381526020018281526020019250505060405180910390a450565b8073ffffffffffffffffffffffffffffffffffffffff16600660009054906101000a900473ffffffffffffffffffffffffffffffffffffffff1673ffffffffffffffffffffffffffffffffffffffff161415156108a4576040517f08c379a00000000000000000000000000000000000000000000000000000000081526004018080602001828103825260238152602001807f74686973204469737472696275746572206973206e6f74204173736f6369617481526020017f65642e000000000000000000000000000000000000000000000000000000000081525060400191505060405180910390fd5b81600760006101000a81548173ffffffffffffffffffffffffffffffffffffffff021916908373ffffffffffffffffffffffffffffffffffffffff160217905550600360048111156108f257fe5b600760146101000a81548160ff0219169083600481111561090f57fe5b02179055505050565b6000600760149054906101000a900460ff16600481111561093557fe5b905090565b6000606080600080600560009054906101000a900473ffffffffffffffffffffffffffffffffffffffff1660016002600354600460009054906101000a900473ffffffffffffffffffffffffffffffffffffffff16838054600181600116156101000203166002900480601f016020809104026020016040519081016040528092919081815260200182805460018160011615610100020316600290048015610a245780601f106109f957610100808354040283529160200191610a24565b820191906000526020600020905b815481529060010190602001808311610a0757829003601f168201915b50505050509350828054600181600116156101000203166002900480601f016020809104026020016040519081016040528092919081815260200182805460018160011615610100020316600290048015610ac05780601f10610a9557610100808354040283529160200191610ac0565b820191906000526020600020905b815481529060010190602001808311610aa357829003601f168201915b50505050509250945094509450945094509091929394565b604080519081016040528060029060208202803883398082019150509050509056fea165627a7a72305820b1f617cd305747ea2c363a2a7d3efa0b0c9d150246f989755132d591c6888a480029",
  "source": "pragma solidity >=0.4.25 < 0.6.0;\r\n\r\nimport './RawMaterial.sol';\r\ncontract Medicine{\r\n\r\n    address Owner;\r\n\r\n    enum medicineStatus {\r\n        atcreator,\r\n        picked4D,\r\n        deliveredatD,\r\n        picked4P,\r\n        deliveredatP\r\n    }\r\n\r\n    string description;\r\n    string rawmaterials;\r\n    uint quantity;\r\n    address shipper;\r\n    address manufacturer;\r\n    address distributer;\r\n    address pharma;\r\n    medicineStatus status;\r\n\r\n    event ShipmentUpdate(\r\n        address indexed BatchID,\r\n        address indexed Shipper,\r\n        address indexed Reciever,\r\n        uint TransporterType,\r\n        uint Status\r\n    );\r\n\r\n    constructor(\r\n        address Manu,\r\n        string memory Des,\r\n        string memory RM,\r\n        uint Quant,\r\n        address Shpr,\r\n        address Rcvr\r\n    ) public {\r\n        Owner = Manu;\r\n        manufacturer = Manu;\r\n        description = Des;\r\n        rawmaterials = RM;\r\n        quantity = Quant;\r\n        shipper = Shpr;\r\n        distributer = Rcvr;\r\n    }\r\n\r\n    function getMedicineInfo () public view returns(address, string memory, string memory, uint, address){\r\n        return(\r\n            manufacturer,\r\n            description,\r\n            rawmaterials,\r\n            quantity,\r\n            shipper\r\n        );\r\n    }\r\n\r\n    function getWDP() public view returns(address[2] memory WDP) {\r\n        return ([distributer,pharma]);\r\n    }\r\n\r\n    function getBatchIDStatus() public view returns(uint) {\r\n        return uint(status);\r\n    }\r\n\r\n    function pickPackage(address shpr) public {\r\n        require(\r\n            shpr == shipper,\r\n            \"Only Associate Shipper can call this function\"\r\n        );\r\n        require(\r\n            status == medicineStatus(0),\r\n            \"Package must be at Supplier.\"\r\n        );\r\n\r\n            status = medicineStatus(1);\r\n            emit ShipmentUpdate(address(this),shipper,distributer,1,1);\r\n    }\r\n\r\n    //function recievePackage()\r\n\r\n    function sendDP(address receiver,address sender) public {\r\n        require(\r\n            distributer == sender,\r\n            \"this Distributer is not Associated.\"\r\n        );\r\n        pharma = receiver;\r\n        status = medicineStatus(3);\r\n    }\r\n\r\n    function recieveDP(address reciever) public {\r\n        require(\r\n            pharma == reciever,\r\n            \"This Pharma is not Associated\"\r\n        );\r\n        status = medicineStatus(4);\r\n    }\r\n\r\n}",
  "sourcePath": "C:\\Documents\\GitHub\\BETA-TESTERS\\Web\\src\\contracts\\Medicine.sol",
  "compiler": {
    "name": "solc",
    "version": "0.5.0+commit.1d4f565a.Emscripten.clang"
  },
  "schemaVersion": "3.0.2",
  "updatedAt": "2019-10-20T02:23:34.299Z",
  "devdoc": {
    "methods": {}
  },
  "userdoc": {
    "methods": {}
  }
}