{
  "contractName": "SupplyChain",
  "abi": [
    {
      "constant": true,
      "inputs": [],
      "name": "Owner",
      "outputs": [
        {
          "name": "",
          "type": "address"
        }
      ],
      "payable": false,
      "stateMutability": "view",
      "type": "function"
    },
    {
      "inputs": [],
      "payable": false,
      "stateMutability": "nonpayable",
      "type": "constructor"
    },
    {
      "anonymous": false,
      "inputs": [
        {
          "indexed": true,
          "name": "EthAddress",
          "type": "address"
        },
        {
          "indexed": false,
          "name": "Name",
          "type": "bytes32"
        }
      ],
      "name": "UserRegister",
      "type": "event"
    },
    {
      "anonymous": false,
      "inputs": [
        {
          "indexed": true,
          "name": "EthAddress",
          "type": "address"
        },
        {
          "indexed": false,
          "name": "Name",
          "type": "bytes32"
        },
        {
          "indexed": false,
          "name": "Role",
          "type": "uint256"
        }
      ],
      "name": "UserRoleRevoked",
      "type": "event"
    },
    {
      "anonymous": false,
      "inputs": [
        {
          "indexed": true,
          "name": "EthAddress",
          "type": "address"
        },
        {
          "indexed": false,
          "name": "Name",
          "type": "bytes32"
        },
        {
          "indexed": false,
          "name": "Role",
          "type": "uint256"
        }
      ],
      "name": "UserRoleRessigne",
      "type": "event"
    },
    {
      "anonymous": false,
      "inputs": [
        {
          "indexed": true,
          "name": "ProductID",
          "type": "address"
        },
        {
          "indexed": true,
          "name": "Supplier",
          "type": "address"
        },
        {
          "indexed": false,
          "name": "Shipper",
          "type": "address"
        },
        {
          "indexed": true,
          "name": "Receiver",
          "type": "address"
        }
      ],
      "name": "RawSupplyInit",
      "type": "event"
    },
    {
      "anonymous": false,
      "inputs": [
        {
          "indexed": true,
          "name": "BatchId",
          "type": "address"
        },
        {
          "indexed": true,
          "name": "Manufacturer",
          "type": "address"
        },
        {
          "indexed": false,
          "name": "shipper",
          "type": "address"
        },
        {
          "indexed": true,
          "name": "Receiver",
          "type": "address"
        }
      ],
      "name": "MedicineNewBatch",
      "type": "event"
    },
    {
      "anonymous": false,
      "inputs": [
        {
          "indexed": false,
          "name": "BatchID",
          "type": "address"
        },
        {
          "indexed": true,
          "name": "Pharma",
          "type": "address"
        },
        {
          "indexed": false,
          "name": "status",
          "type": "uint256"
        }
      ],
      "name": "MedicineStatus",
      "type": "event"
    },
    {
      "constant": false,
      "inputs": [
        {
          "name": "EthAddress",
          "type": "address"
        },
        {
          "name": "Name",
          "type": "bytes32"
        },
        {
          "name": "Location",
          "type": "bytes32"
        },
        {
          "name": "Role",
          "type": "uint256"
        }
      ],
      "name": "registerUser",
      "outputs": [],
      "payable": false,
      "stateMutability": "nonpayable",
      "type": "function"
    },
    {
      "constant": false,
      "inputs": [
        {
          "name": "userAddress",
          "type": "address"
        }
      ],
      "name": "revokeRole",
      "outputs": [],
      "payable": false,
      "stateMutability": "nonpayable",
      "type": "function"
    },
    {
      "constant": false,
      "inputs": [
        {
          "name": "userAddress",
          "type": "address"
        },
        {
          "name": "Role",
          "type": "uint256"
        }
      ],
      "name": "reassigneRole",
      "outputs": [],
      "payable": false,
      "stateMutability": "nonpayable",
      "type": "function"
    },
    {
      "constant": true,
      "inputs": [
        {
          "name": "User",
          "type": "address"
        }
      ],
      "name": "getUserInfo",
      "outputs": [
        {
          "name": "name",
          "type": "bytes32"
        },
        {
          "name": "location",
          "type": "bytes32"
        },
        {
          "name": "ethAddress",
          "type": "address"
        },
        {
          "name": "role",
          "type": "uint8"
        }
      ],
      "payable": false,
      "stateMutability": "view",
      "type": "function"
    },
    {
      "constant": true,
      "inputs": [],
      "name": "getUsersCount",
      "outputs": [
        {
          "name": "count",
          "type": "uint256"
        }
      ],
      "payable": false,
      "stateMutability": "view",
      "type": "function"
    },
    {
      "constant": true,
      "inputs": [
        {
          "name": "index",
          "type": "uint256"
        }
      ],
      "name": "getUserbyIndex",
      "outputs": [
        {
          "name": "name",
          "type": "bytes32"
        },
        {
          "name": "location",
          "type": "bytes32"
        },
        {
          "name": "ethAddress",
          "type": "address"
        },
        {
          "name": "role",
          "type": "uint8"
        }
      ],
      "payable": false,
      "stateMutability": "view",
      "type": "function"
    },
    {
      "constant": false,
      "inputs": [
        {
          "name": "Des",
          "type": "bytes32"
        },
        {
          "name": "FN",
          "type": "bytes32"
        },
        {
          "name": "Loc",
          "type": "bytes32"
        },
        {
          "name": "Quant",
          "type": "uint256"
        },
        {
          "name": "Shpr",
          "type": "address"
        },
        {
          "name": "Rcvr",
          "type": "address"
        }
      ],
      "name": "createRawPackage",
      "outputs": [],
      "payable": false,
      "stateMutability": "nonpayable",
      "type": "function"
    },
    {
      "constant": true,
      "inputs": [],
      "name": "getPackagesCountS",
      "outputs": [
        {
          "name": "count",
          "type": "uint256"
        }
      ],
      "payable": false,
      "stateMutability": "view",
      "type": "function"
    },
    {
      "constant": true,
      "inputs": [
        {
          "name": "index",
          "type": "uint256"
        }
      ],
      "name": "getPackageIdByIndexS",
      "outputs": [
        {
          "name": "packageID",
          "type": "address"
        }
      ],
      "payable": false,
      "stateMutability": "view",
      "type": "function"
    },
    {
      "constant": false,
      "inputs": [
        {
          "name": "pid",
          "type": "address"
        },
        {
          "name": "transportertype",
          "type": "uint256"
        },
        {
          "name": "cid",
          "type": "address"
        }
      ],
      "name": "loadConsingment",
      "outputs": [],
      "payable": false,
      "stateMutability": "nonpayable",
      "type": "function"
    },
    {
      "constant": false,
      "inputs": [
        {
          "name": "pid",
          "type": "address"
        }
      ],
      "name": "rawPackageReceived",
      "outputs": [],
      "payable": false,
      "stateMutability": "nonpayable",
      "type": "function"
    },
    {
      "constant": true,
      "inputs": [],
      "name": "getPackagesCountM",
      "outputs": [
        {
          "name": "count",
          "type": "uint256"
        }
      ],
      "payable": false,
      "stateMutability": "view",
      "type": "function"
    },
    {
      "constant": true,
      "inputs": [
        {
          "name": "index",
          "type": "uint256"
        }
      ],
      "name": "getPackageIDByIndexM",
      "outputs": [
        {
          "name": "BatchID",
          "type": "address"
        }
      ],
      "payable": false,
      "stateMutability": "view",
      "type": "function"
    },
    {
      "constant": false,
      "inputs": [
        {
          "name": "Des",
          "type": "bytes32"
        },
        {
          "name": "RM",
          "type": "bytes32"
        },
        {
          "name": "Quant",
          "type": "uint256"
        },
        {
          "name": "Shpr",
          "type": "address"
        },
        {
          "name": "Rcvr",
          "type": "address"
        }
      ],
      "name": "manufacturMadicine",
      "outputs": [],
      "payable": false,
      "stateMutability": "nonpayable",
      "type": "function"
    },
    {
      "constant": true,
      "inputs": [],
      "name": "getBatchesCountM",
      "outputs": [
        {
          "name": "count",
          "type": "uint256"
        }
      ],
      "payable": false,
      "stateMutability": "view",
      "type": "function"
    },
    {
      "constant": true,
      "inputs": [
        {
          "name": "index",
          "type": "uint256"
        }
      ],
      "name": "getBatchIdByIndexM",
      "outputs": [
        {
          "name": "packageID",
          "type": "address"
        }
      ],
      "payable": false,
      "stateMutability": "view",
      "type": "function"
    },
    {
      "constant": false,
      "inputs": [
        {
          "name": "_hash",
          "type": "string"
        }
      ],
      "name": "setHash",
      "outputs": [],
      "payable": false,
      "stateMutability": "nonpayable",
      "type": "function"
    },
    {
      "constant": true,
      "inputs": [],
      "name": "getHash",
      "outputs": [
        {
          "name": "",
          "type": "string"
        }
      ],
      "payable": false,
      "stateMutability": "view",
      "type": "function"
    },
    {
      "constant": false,
      "inputs": [
        {
          "name": "BatchID",
          "type": "address"
        },
        {
          "name": "Shipper",
          "type": "address"
        },
        {
          "name": "Receiver",
          "type": "address"
        }
      ],
      "name": "transferMadicineDtoP",
      "outputs": [],
      "payable": false,
      "stateMutability": "nonpayable",
      "type": "function"
    },
    {
      "constant": true,
      "inputs": [],
      "name": "getBatchesCountDP",
      "outputs": [
        {
          "name": "count",
          "type": "uint256"
        }
      ],
      "payable": false,
      "stateMutability": "view",
      "type": "function"
    },
    {
      "constant": true,
      "inputs": [
        {
          "name": "index",
          "type": "uint256"
        }
      ],
      "name": "getBatchIdByIndexDP",
      "outputs": [
        {
          "name": "packageID",
          "type": "address"
        }
      ],
      "payable": false,
      "stateMutability": "view",
      "type": "function"
    },
    {
      "constant": true,
      "inputs": [
        {
          "name": "BatchID",
          "type": "address"
        }
      ],
      "name": "getSubContractDP",
      "outputs": [
        {
          "name": "SubContractDP",
          "type": "address"
        }
      ],
      "payable": false,
      "stateMutability": "view",
      "type": "function"
    },
    {
      "constant": false,
      "inputs": [
        {
          "name": "batchid",
          "type": "address"
        },
        {
          "name": "cid",
          "type": "address"
        }
      ],
      "name": "medicineRecievedAtPharma",
      "outputs": [],
      "payable": false,
      "stateMutability": "nonpayable",
      "type": "function"
    },
    {
      "constant": false,
      "inputs": [
        {
          "name": "BatchID",
          "type": "address"
        },
        {
          "name": "Status",
          "type": "uint256"
        }
      ],
      "name": "updateSaleStatus",
      "outputs": [],
      "payable": false,
      "stateMutability": "nonpayable",
      "type": "function"
    },
    {
      "constant": true,
      "inputs": [
        {
          "name": "BatchID",
          "type": "address"
        }
      ],
      "name": "salesInfo",
      "outputs": [
        {
          "name": "Status",
          "type": "uint256"
        }
      ],
      "payable": false,
      "stateMutability": "view",
      "type": "function"
    },
    {
      "constant": true,
      "inputs": [],
      "name": "getBatchesCountP",
      "outputs": [
        {
          "name": "count",
          "type": "uint256"
        }
      ],
      "payable": false,
      "stateMutability": "view",
      "type": "function"
    },
    {
      "constant": true,
      "inputs": [
        {
          "name": "index",
          "type": "uint256"
        }
      ],
      "name": "getBatchIdByIndexP",
      "outputs": [
        {
          "name": "BatchID",
          "type": "address"
        }
      ],
      "payable": false,
      "stateMutability": "view",
      "type": "function"
    }
  ],
  "bytecode": "0x608060405234801561001057600080fd5b50336000806101000a81548173ffffffffffffffffffffffffffffffffffffffff021916908373ffffffffffffffffffffffffffffffffffffffff160217905550616048806100606000396000f3fe60806040526004361062000187576000357c0100000000000000000000000000000000000000000000000000000000900463ffffffff1680630bcc7568146200018c578063108329f8146200020b5780631ed83fd414620002ae5780632becfd04146200037d578063373d5c1814620003ab5780633d66f86d146200040a57806346fdc45b14620004385780635e33cea414620004cb5780636386c1c7146200054a57806373f08eb3146200060357806380e52e3f1462000682578063884b9c5214620006d7578063923f645a1462000705578063986c913914620007785780639fb3a90314620007f7578063a4a1e2631462000825578063b4a99a4e1462000853578063b6c022f514620008ad578063bb8ee1c51462000942578063bc8c5b1c14620009ab578063c1a3195c1462000a00578063d13319c41462000a75578063d40da9671462000b0b578063e581762e1462000ba8578063e5bff92a1462000bd6578063eae3c2071462000c55578063f05bcd4e1462000cb4578063f9723eb61462000d33575b600080fd5b3480156200019957600080fd5b50620001c960048036036020811015620001b257600080fd5b810190808035906020019092919050505062000dc8565b604051808273ffffffffffffffffffffffffffffffffffffffff1673ffffffffffffffffffffffffffffffffffffffff16815260200191505060405180910390f35b3480156200021857600080fd5b5062000248600480360360208110156200023157600080fd5b810190808035906020019092919050505062000f4f565b604051808581526020018481526020018373ffffffffffffffffffffffffffffffffffffffff1673ffffffffffffffffffffffffffffffffffffffff1681526020018260068111156200029757fe5b60ff16815260200194505050505060405180910390f35b348015620002bb57600080fd5b506200037b60048036036020811015620002d457600080fd5b8101908080359060200190640100000000811115620002f257600080fd5b8201836020820111156200030557600080fd5b803590602001918460018302840111640100000000831117156200032857600080fd5b91908080601f016020809104026020016040519081016040528093929190818152602001838380828437600081840152601f19601f82011690508083019250505050505050919291929050505062000fa9565b005b3480156200038a57600080fd5b506200039562001002565b6040518082815260200191505060405180910390f35b348015620003b857600080fd5b506200040860048036036040811015620003d157600080fd5b81019080803573ffffffffffffffffffffffffffffffffffffffff1690602001909291908035906020019092919050505062001152565b005b3480156200041757600080fd5b506200042262001485565b6040518082815260200191505060405180910390f35b3480156200044557600080fd5b50620004c9600480360360a08110156200045e57600080fd5b81019080803590602001909291908035906020019092919080359060200190929190803573ffffffffffffffffffffffffffffffffffffffff169060200190929190803573ffffffffffffffffffffffffffffffffffffffff169060200190929190505050620015d5565b005b348015620004d857600080fd5b506200050860048036036020811015620004f157600080fd5b810190808035906020019092919050505062001911565b604051808273ffffffffffffffffffffffffffffffffffffffff1673ffffffffffffffffffffffffffffffffffffffff16815260200191505060405180910390f35b3480156200055757600080fd5b506200059d600480360360208110156200057057600080fd5b81019080803573ffffffffffffffffffffffffffffffffffffffff16906020019092919050505062001a98565b604051808581526020018481526020018373ffffffffffffffffffffffffffffffffffffffff1673ffffffffffffffffffffffffffffffffffffffff168152602001826006811115620005ec57fe5b60ff16815260200194505050505060405180910390f35b3480156200061057600080fd5b5062000680600480360360608110156200062957600080fd5b81019080803573ffffffffffffffffffffffffffffffffffffffff16906020019092919080359060200190929190803573ffffffffffffffffffffffffffffffffffffffff16906020019092919050505062001be6565b005b3480156200068f57600080fd5b50620006d560048036036020811015620006a857600080fd5b81019080803573ffffffffffffffffffffffffffffffffffffffff16906020019092919050505062001fea565b005b348015620006e457600080fd5b50620006ef6200231c565b6040518082815260200191505060405180910390f35b3480156200071257600080fd5b5062000776600480360360808110156200072b57600080fd5b81019080803573ffffffffffffffffffffffffffffffffffffffff1690602001909291908035906020019092919080359060200190929190803590602001909291905050506200246c565b005b3480156200078557600080fd5b50620007b5600480360360208110156200079e57600080fd5b810190808035906020019092919050505062002870565b604051808273ffffffffffffffffffffffffffffffffffffffff1673ffffffffffffffffffffffffffffffffffffffff16815260200191505060405180910390f35b3480156200080457600080fd5b506200080f620029f7565b6040518082815260200191505060405180910390f35b3480156200083257600080fd5b506200083d62002b47565b6040518082815260200191505060405180910390f35b3480156200086057600080fd5b506200086b62002b54565b604051808273ffffffffffffffffffffffffffffffffffffffff1673ffffffffffffffffffffffffffffffffffffffff16815260200191505060405180910390f35b348015620008ba57600080fd5b506200090060048036036020811015620008d357600080fd5b81019080803573ffffffffffffffffffffffffffffffffffffffff16906020019092919050505062002b79565b604051808273ffffffffffffffffffffffffffffffffffffffff1673ffffffffffffffffffffffffffffffffffffffff16815260200191505060405180910390f35b3480156200094f57600080fd5b5062000995600480360360208110156200096857600080fd5b81019080803573ffffffffffffffffffffffffffffffffffffffff16906020019092919050505062002be2565b6040518082815260200191505060405180910390f35b348015620009b857600080fd5b50620009fe60048036036020811015620009d157600080fd5b81019080803573ffffffffffffffffffffffffffffffffffffffff16906020019092919050505062002c44565b005b34801562000a0d57600080fd5b5062000a736004803603604081101562000a2657600080fd5b81019080803573ffffffffffffffffffffffffffffffffffffffff169060200190929190803573ffffffffffffffffffffffffffffffffffffffff16906020019092919050505062002ea5565b005b34801562000a8257600080fd5b5062000a8d620031a9565b6040518080602001828103825283818151815260200191508051906020019080838360005b8381101562000acf57808201518184015260208101905062000ab2565b50505050905090810190601f16801562000afd5780820380516001836020036101000a031916815260200191505b509250505060405180910390f35b34801562000b1857600080fd5b5062000ba6600480360360c081101562000b3157600080fd5b8101908080359060200190929190803590602001909291908035906020019092919080359060200190929190803573ffffffffffffffffffffffffffffffffffffffff169060200190929190803573ffffffffffffffffffffffffffffffffffffffff1690602001909291905050506200328c565b005b34801562000bb557600080fd5b5062000bc0620035d1565b6040518082815260200191505060405180910390f35b34801562000be357600080fd5b5062000c136004803603602081101562000bfc57600080fd5b810190808035906020019092919050505062003747565b604051808273ffffffffffffffffffffffffffffffffffffffff1673ffffffffffffffffffffffffffffffffffffffff16815260200191505060405180910390f35b34801562000c6257600080fd5b5062000cb26004803603604081101562000c7b57600080fd5b81019080803573ffffffffffffffffffffffffffffffffffffffff16906020019092919080359060200190929190505050620038f4565b005b34801562000cc157600080fd5b5062000cf16004803603602081101562000cda57600080fd5b810190808035906020019092919050505062003cc6565b604051808273ffffffffffffffffffffffffffffffffffffffff1673ffffffffffffffffffffffffffffffffffffffff16815260200191505060405180910390f35b34801562000d4057600080fd5b5062000dc66004803603606081101562000d5957600080fd5b81019080803573ffffffffffffffffffffffffffffffffffffffff169060200190929190803573ffffffffffffffffffffffffffffffffffffffff169060200190929190803573ffffffffffffffffffffffffffffffffffffffff16906020019092919050505062003e4d565b005b60006003600681111562000dd857fe5b600160003373ffffffffffffffffffffffffffffffffffffffff1673ffffffffffffffffffffffffffffffffffffffff16815260200190815260200160002060020160149054906101000a900460ff16600681111562000e3457fe5b14151562000ed0576040517f08c379a00000000000000000000000000000000000000000000000000000000081526004018080602001828103825260288152602001807f4f6e6c79206d616e7566616374757265722063616e2063616c6c20746869732081526020017f66756e6374696f6e00000000000000000000000000000000000000000000000081525060400191505060405180910390fd5b600460003373ffffffffffffffffffffffffffffffffffffffff1673ffffffffffffffffffffffffffffffffffffffff1681526020019081526020016000208281548110151562000f1d57fe5b9060005260206000200160009054906101000a900473ffffffffffffffffffffffffffffffffffffffff169050919050565b60008060008062000f9a60028681548110151562000f6957fe5b9060005260206000200160009054906101000a900473ffffffffffffffffffffffffffffffffffffffff1662001a98565b93509350935093509193509193565b80600560003373ffffffffffffffffffffffffffffffffffffffff1673ffffffffffffffffffffffffffffffffffffffff168152602001908152602001600020908051906020019062000ffe9291906200428f565b5050565b6000600160068111156200101257fe5b600160003373ffffffffffffffffffffffffffffffffffffffff1673ffffffffffffffffffffffffffffffffffffffff16815260200190815260200160002060020160149054906101000a900460ff1660068111156200106e57fe5b1415156200110a576040517f08c379a00000000000000000000000000000000000000000000000000000000081526004018080602001828103825260258152602001807f4f6e6c7920537570706c6965722043616e2063616c6c20746869732066756e6381526020017f74696f6e2000000000000000000000000000000000000000000000000000000081525060400191505060405180910390fd5b600360003373ffffffffffffffffffffffffffffffffffffffff1673ffffffffffffffffffffffffffffffffffffffff16815260200190815260200160002080549050905090565b6000809054906101000a900473ffffffffffffffffffffffffffffffffffffffff1673ffffffffffffffffffffffffffffffffffffffff163373ffffffffffffffffffffffffffffffffffffffff161415156200123d576040517f08c379a00000000000000000000000000000000000000000000000000000000081526004018080602001828103825260228152602001807f4f6e6c79206f776e65722063616e2063616c6c20746869732066756e6374696f81526020017f6e2e00000000000000000000000000000000000000000000000000000000000081525060400191505060405180910390fd5b600060068111156200124b57fe5b600160008473ffffffffffffffffffffffffffffffffffffffff1673ffffffffffffffffffffffffffffffffffffffff16815260200190815260200160002060020160149054906101000a900460ff166006811115620012a757fe5b141515156200131e576040517f08c379a00000000000000000000000000000000000000000000000000000000081526004018080602001828103825260138152602001807f55736572206e6f7420726567697374657265640000000000000000000000000081525060200191505060405180910390fd5b8060068111156200132b57fe5b600160008473ffffffffffffffffffffffffffffffffffffffff1673ffffffffffffffffffffffffffffffffffffffff16815260200190815260200160002060020160146101000a81548160ff021916908360068111156200138957fe5b02179055508173ffffffffffffffffffffffffffffffffffffffff167f4c8b3f61ed94356876db0fec52d6a7c6aeaf772c4e0ca8f6da74331cc0f687cc600160008573ffffffffffffffffffffffffffffffffffffffff1673ffffffffffffffffffffffffffffffffffffffff16815260200190815260200160002060000154600160008673ffffffffffffffffffffffffffffffffffffffff1673ffffffffffffffffffffffffffffffffffffffff16815260200190815260200160002060020160149054906101000a900460ff1660068111156200146557fe5b604051808381526020018281526020019250505060405180910390a25050565b6000600360068111156200149557fe5b600160003373ffffffffffffffffffffffffffffffffffffffff1673ffffffffffffffffffffffffffffffffffffffff16815260200190815260200160002060020160149054906101000a900460ff166006811115620014f157fe5b1415156200158d576040517f08c379a00000000000000000000000000000000000000000000000000000000081526004018080602001828103825260298152602001807f4f6e6c79204d616e7566616374757265722043616e2063616c6c20746869732081526020017f66756e6374696f6e2e000000000000000000000000000000000000000000000081525060400191505060405180910390fd5b600660003373ffffffffffffffffffffffffffffffffffffffff1673ffffffffffffffffffffffffffffffffffffffff16815260200190815260200160002080549050905090565b60036006811115620015e357fe5b600160003373ffffffffffffffffffffffffffffffffffffffff1673ffffffffffffffffffffffffffffffffffffffff16815260200190815260200160002060020160149054906101000a900460ff1660068111156200163f57fe5b141515620016db576040517f08c379a00000000000000000000000000000000000000000000000000000000081526004018080602001828103825260288152602001807f4f6e6c79206d616e7566616374757265722063616e2063616c6c20746869732081526020017f66756e6374696f6e00000000000000000000000000000000000000000000000081525060400191505060405180910390fd5b6000338686868686620016ed62004316565b808773ffffffffffffffffffffffffffffffffffffffff1673ffffffffffffffffffffffffffffffffffffffff1681526020018681526020018581526020018481526020018373ffffffffffffffffffffffffffffffffffffffff1673ffffffffffffffffffffffffffffffffffffffff1681526020018273ffffffffffffffffffffffffffffffffffffffff1673ffffffffffffffffffffffffffffffffffffffff1681526020019650505050505050604051809103906000f080158015620017bb573d6000803e3d6000fd5b509050600660003373ffffffffffffffffffffffffffffffffffffffff1673ffffffffffffffffffffffffffffffffffffffff1681526020019081526020016000208190806001815401808255809150509060018203906000526020600020016000909192909190916101000a81548173ffffffffffffffffffffffffffffffffffffffff021916908373ffffffffffffffffffffffffffffffffffffffff160217905550508173ffffffffffffffffffffffffffffffffffffffff163373ffffffffffffffffffffffffffffffffffffffff168273ffffffffffffffffffffffffffffffffffffffff167fa464e8d0d73596ec44ad2f56ca60a8fc4ef75e1b7b0b3f46fe1e073fb5da11b586604051808273ffffffffffffffffffffffffffffffffffffffff1673ffffffffffffffffffffffffffffffffffffffff16815260200191505060405180910390a4505050505050565b6000600160068111156200192157fe5b600160003373ffffffffffffffffffffffffffffffffffffffff1673ffffffffffffffffffffffffffffffffffffffff16815260200190815260200160002060020160149054906101000a900460ff1660068111156200197d57fe5b14151562001a19576040517f08c379a00000000000000000000000000000000000000000000000000000000081526004018080602001828103825260258152602001807f4f6e6c7920537570706c6965722043616e2063616c6c20746869732066756e6381526020017f74696f6e2000000000000000000000000000000000000000000000000000000081525060400191505060405180910390fd5b600360003373ffffffffffffffffffffffffffffffffffffffff1673ffffffffffffffffffffffffffffffffffffffff1681526020019081526020016000208281548110151562001a6657fe5b9060005260206000200160009054906101000a900473ffffffffffffffffffffffffffffffffffffffff169050919050565b600080600080600160008673ffffffffffffffffffffffffffffffffffffffff1673ffffffffffffffffffffffffffffffffffffffff16815260200190815260200160002060000154600160008773ffffffffffffffffffffffffffffffffffffffff1673ffffffffffffffffffffffffffffffffffffffff16815260200190815260200160002060010154600160008873ffffffffffffffffffffffffffffffffffffffff1673ffffffffffffffffffffffffffffffffffffffff16815260200190815260200160002060020160009054906101000a900473ffffffffffffffffffffffffffffffffffffffff16600160008973ffffffffffffffffffffffffffffffffffffffff1673ffffffffffffffffffffffffffffffffffffffff16815260200190815260200160002060020160149054906101000a900460ff1693509350935093509193509193565b6002600681111562001bf457fe5b600160003373ffffffffffffffffffffffffffffffffffffffff1673ffffffffffffffffffffffffffffffffffffffff16815260200190815260200160002060020160149054906101000a900460ff16600681111562001c5057fe5b14151562001cec576040517f08c379a00000000000000000000000000000000000000000000000000000000081526004018080602001828103825260278152602001807f4f6e6c79205472616e73706f727465722063616e2063616c6c2074686973206681526020017f756e6374696f6e0000000000000000000000000000000000000000000000000081525060400191505060405180910390fd5b60008211151562001d65576040517f08c379a000000000000000000000000000000000000000000000000000000000815260040180806020018281038252601f8152602001807f5472616e73706f727465722054797065206d75737420626520646566696e650081525060200191505060405180910390fd5b600182141562001e2a578273ffffffffffffffffffffffffffffffffffffffff1663638e9a3d336040518263ffffffff167c0100000000000000000000000000000000000000000000000000000000028152600401808273ffffffffffffffffffffffffffffffffffffffff1673ffffffffffffffffffffffffffffffffffffffff168152602001915050600060405180830381600087803b15801562001e0b57600080fd5b505af115801562001e20573d6000803e3d6000fd5b5050505062001fe5565b600282141562001eef578273ffffffffffffffffffffffffffffffffffffffff1663638e9a3d336040518263ffffffff167c0100000000000000000000000000000000000000000000000000000000028152600401808273ffffffffffffffffffffffffffffffffffffffff1673ffffffffffffffffffffffffffffffffffffffff168152602001915050600060405180830381600087803b15801562001ed057600080fd5b505af115801562001ee5573d6000803e3d6000fd5b5050505062001fe4565b600382141562001fe3578073ffffffffffffffffffffffffffffffffffffffff1663d39ff0e784336040518363ffffffff167c0100000000000000000000000000000000000000000000000000000000028152600401808373ffffffffffffffffffffffffffffffffffffffff1673ffffffffffffffffffffffffffffffffffffffff1681526020018273ffffffffffffffffffffffffffffffffffffffff1673ffffffffffffffffffffffffffffffffffffffff16815260200192505050600060405180830381600087803b15801562001fc957600080fd5b505af115801562001fde573d6000803e3d6000fd5b505050505b5b5b505050565b6000809054906101000a900473ffffffffffffffffffffffffffffffffffffffff1673ffffffffffffffffffffffffffffffffffffffff163373ffffffffffffffffffffffffffffffffffffffff16141515620020d5576040517f08c379a00000000000000000000000000000000000000000000000000000000081526004018080602001828103825260228152602001807f4f6e6c79206f776e65722063616e2063616c6c20746869732066756e6374696f81526020017f6e2e00000000000000000000000000000000000000000000000000000000000081525060400191505060405180910390fd5b60006006811115620020e357fe5b600160008373ffffffffffffffffffffffffffffffffffffffff1673ffffffffffffffffffffffffffffffffffffffff16815260200190815260200160002060020160149054906101000a900460ff1660068111156200213f57fe5b14151515620021b6576040517f08c379a00000000000000000000000000000000000000000000000000000000081526004018080602001828103825260138152602001807f55736572206e6f7420726567697374657265640000000000000000000000000081525060200191505060405180910390fd5b8073ffffffffffffffffffffffffffffffffffffffff167fb5f04dfc1ccfefb366c4dc7a23670362462e0a415afb89d8cba1fb657e264c96600160008473ffffffffffffffffffffffffffffffffffffffff1673ffffffffffffffffffffffffffffffffffffffff16815260200190815260200160002060000154600160008573ffffffffffffffffffffffffffffffffffffffff1673ffffffffffffffffffffffffffffffffffffffff16815260200190815260200160002060020160149054906101000a900460ff1660068111156200228d57fe5b604051808381526020018281526020019250505060405180910390a2600680811115620022b657fe5b600160008373ffffffffffffffffffffffffffffffffffffffff1673ffffffffffffffffffffffffffffffffffffffff16815260200190815260200160002060020160146101000a81548160ff021916908360068111156200231457fe5b021790555050565b6000600460068111156200232c57fe5b600160003373ffffffffffffffffffffffffffffffffffffffff1673ffffffffffffffffffffffffffffffffffffffff16815260200190815260200160002060020160149054906101000a900460ff1660068111156200238857fe5b14151562002424576040517f08c379a00000000000000000000000000000000000000000000000000000000081526004018080602001828103825260288152602001807f4f6e6c792044697374726962757465722043616e2063616c6c2074686973206681526020017f756e6374696f6e2e00000000000000000000000000000000000000000000000081525060400191505060405180910390fd5b600860003373ffffffffffffffffffffffffffffffffffffffff1673ffffffffffffffffffffffffffffffffffffffff16815260200190815260200160002080549050905090565b6000809054906101000a900473ffffffffffffffffffffffffffffffffffffffff1673ffffffffffffffffffffffffffffffffffffffff163373ffffffffffffffffffffffffffffffffffffffff1614151562002557576040517f08c379a00000000000000000000000000000000000000000000000000000000081526004018080602001828103825260228152602001807f4f6e6c79206f776e65722063616e2063616c6c20746869732066756e6374696f81526020017f6e2e00000000000000000000000000000000000000000000000000000000000081525060400191505060405180910390fd5b600060068111156200256557fe5b600160008673ffffffffffffffffffffffffffffffffffffffff1673ffffffffffffffffffffffffffffffffffffffff16815260200190815260200160002060020160149054906101000a900460ff166006811115620025c157fe5b14151562002637576040517f08c379a00000000000000000000000000000000000000000000000000000000081526004018080602001828103825260178152602001807f5573657220416c7265616479207265676973746572656400000000000000000081525060200191505060405180910390fd5b82600160008673ffffffffffffffffffffffffffffffffffffffff1673ffffffffffffffffffffffffffffffffffffffff1681526020019081526020016000206000018190555081600160008673ffffffffffffffffffffffffffffffffffffffff1673ffffffffffffffffffffffffffffffffffffffff1681526020019081526020016000206001018190555083600160008673ffffffffffffffffffffffffffffffffffffffff1673ffffffffffffffffffffffffffffffffffffffff16815260200190815260200160002060020160006101000a81548173ffffffffffffffffffffffffffffffffffffffff021916908373ffffffffffffffffffffffffffffffffffffffff1602179055508060068111156200275357fe5b600160008673ffffffffffffffffffffffffffffffffffffffff1673ffffffffffffffffffffffffffffffffffffffff16815260200190815260200160002060020160146101000a81548160ff02191690836006811115620027b157fe5b021790555060028490806001815401808255809150509060018203906000526020600020016000909192909190916101000a81548173ffffffffffffffffffffffffffffffffffffffff021916908373ffffffffffffffffffffffffffffffffffffffff160217905550508373ffffffffffffffffffffffffffffffffffffffff167f33a7170f028b1e4f5ba321064a00ed820856a920c7f9c6636fbcf385427b1b0f846040518082815260200191505060405180910390a250505050565b6000600360068111156200288057fe5b600160003373ffffffffffffffffffffffffffffffffffffffff1673ffffffffffffffffffffffffffffffffffffffff16815260200190815260200160002060020160149054906101000a900460ff166006811115620028dc57fe5b14151562002978576040517f08c379a00000000000000000000000000000000000000000000000000000000081526004018080602001828103825260298152602001807f4f6e6c79204d616e7566616374757265722043616e2063616c6c20746869732081526020017f66756e6374696f6e2e000000000000000000000000000000000000000000000081525060400191505060405180910390fd5b600660003373ffffffffffffffffffffffffffffffffffffffff1673ffffffffffffffffffffffffffffffffffffffff16815260200190815260200160002082815481101515620029c557fe5b9060005260206000200160009054906101000a900473ffffffffffffffffffffffffffffffffffffffff169050919050565b60006003600681111562002a0757fe5b600160003373ffffffffffffffffffffffffffffffffffffffff1673ffffffffffffffffffffffffffffffffffffffff16815260200190815260200160002060020160149054906101000a900460ff16600681111562002a6357fe5b14151562002aff576040517f08c379a00000000000000000000000000000000000000000000000000000000081526004018080602001828103825260288152602001807f4f6e6c79206d616e7566616374757265722063616e2063616c6c20746869732081526020017f66756e6374696f6e00000000000000000000000000000000000000000000000081525060400191505060405180910390fd5b600460003373ffffffffffffffffffffffffffffffffffffffff1673ffffffffffffffffffffffffffffffffffffffff16815260200190815260200160002080549050905090565b6000600280549050905090565b6000809054906101000a900473ffffffffffffffffffffffffffffffffffffffff1681565b6000600960008373ffffffffffffffffffffffffffffffffffffffff1673ffffffffffffffffffffffffffffffffffffffff16815260200190815260200160002060009054906101000a900473ffffffffffffffffffffffffffffffffffffffff169050919050565b6000600b60008373ffffffffffffffffffffffffffffffffffffffff1673ffffffffffffffffffffffffffffffffffffffff16815260200190815260200160002060009054906101000a900460ff16600481111562002c3d57fe5b9050919050565b6003600681111562002c5257fe5b600160003373ffffffffffffffffffffffffffffffffffffffff1673ffffffffffffffffffffffffffffffffffffffff16815260200190815260200160002060020160149054906101000a900460ff16600681111562002cae57fe5b14151562002d4a576040517f08c379a00000000000000000000000000000000000000000000000000000000081526004018080602001828103825260288152602001807f4f6e6c79206d616e7566616374757265722063616e2063616c6c20746869732081526020017f66756e6374696f6e00000000000000000000000000000000000000000000000081525060400191505060405180910390fd5b8073ffffffffffffffffffffffffffffffffffffffff166352b99968336040518263ffffffff167c0100000000000000000000000000000000000000000000000000000000028152600401808273ffffffffffffffffffffffffffffffffffffffff1673ffffffffffffffffffffffffffffffffffffffff168152602001915050600060405180830381600087803b15801562002de657600080fd5b505af115801562002dfb573d6000803e3d6000fd5b50505050600460003373ffffffffffffffffffffffffffffffffffffffff1673ffffffffffffffffffffffffffffffffffffffff1681526020019081526020016000208190806001815401808255809150509060018203906000526020600020016000909192909190916101000a81548173ffffffffffffffffffffffffffffffffffffffff021916908373ffffffffffffffffffffffffffffffffffffffff1602179055505050565b6005600681111562002eb357fe5b600160003373ffffffffffffffffffffffffffffffffffffffff1673ffffffffffffffffffffffffffffffffffffffff16815260200190815260200160002060020160149054906101000a900460ff16600681111562002f0f57fe5b14151562002fab576040517f08c379a00000000000000000000000000000000000000000000000000000000081526004018080602001828103825260238152602001807f4f6e6c7920506861726d612043616e2063616c6c20746869732066756e63746981526020017f6f6e2e000000000000000000000000000000000000000000000000000000000081525060400191505060405180910390fd5b8073ffffffffffffffffffffffffffffffffffffffff166332a60e0083336040518363ffffffff167c0100000000000000000000000000000000000000000000000000000000028152600401808373ffffffffffffffffffffffffffffffffffffffff1673ffffffffffffffffffffffffffffffffffffffff1681526020018273ffffffffffffffffffffffffffffffffffffffff1673ffffffffffffffffffffffffffffffffffffffff16815260200192505050600060405180830381600087803b1580156200307b57600080fd5b505af115801562003090573d6000803e3d6000fd5b50505050600a60003373ffffffffffffffffffffffffffffffffffffffff1673ffffffffffffffffffffffffffffffffffffffff1681526020019081526020016000208290806001815401808255809150509060018203906000526020600020016000909192909190916101000a81548173ffffffffffffffffffffffffffffffffffffffff021916908373ffffffffffffffffffffffffffffffffffffffff16021790555050600160048111156200314557fe5b600b60008473ffffffffffffffffffffffffffffffffffffffff1673ffffffffffffffffffffffffffffffffffffffff16815260200190815260200160002060006101000a81548160ff02191690836004811115620031a057fe5b02179055505050565b6060600560003373ffffffffffffffffffffffffffffffffffffffff1673ffffffffffffffffffffffffffffffffffffffff1681526020019081526020016000208054600181600116156101000203166002900480601f016020809104026020016040519081016040528092919081815260200182805460018160011615610100020316600290048015620032825780601f10620032565761010080835404028352916020019162003282565b820191906000526020600020905b8154815290600101906020018083116200326457829003601f168201915b5050505050905090565b600160068111156200329a57fe5b600160003373ffffffffffffffffffffffffffffffffffffffff1673ffffffffffffffffffffffffffffffffffffffff16815260200190815260200160002060020160149054906101000a900460ff166006811115620032f657fe5b14151562003392576040517f08c379a00000000000000000000000000000000000000000000000000000000081526004018080602001828103825260258152602001807f4f6e6c7920537570706c6965722043616e2063616c6c20746869732066756e6381526020017f74696f6e2000000000000000000000000000000000000000000000000000000081525060400191505060405180910390fd5b600033878787878787620033a562004327565b808873ffffffffffffffffffffffffffffffffffffffff1673ffffffffffffffffffffffffffffffffffffffff1681526020018781526020018681526020018581526020018481526020018373ffffffffffffffffffffffffffffffffffffffff1673ffffffffffffffffffffffffffffffffffffffff1681526020018273ffffffffffffffffffffffffffffffffffffffff1673ffffffffffffffffffffffffffffffffffffffff168152602001975050505050505050604051809103906000f0801580156200347a573d6000803e3d6000fd5b509050600360003373ffffffffffffffffffffffffffffffffffffffff1673ffffffffffffffffffffffffffffffffffffffff1681526020019081526020016000208190806001815401808255809150509060018203906000526020600020016000909192909190916101000a81548173ffffffffffffffffffffffffffffffffffffffff021916908373ffffffffffffffffffffffffffffffffffffffff160217905550508173ffffffffffffffffffffffffffffffffffffffff163373ffffffffffffffffffffffffffffffffffffffff168273ffffffffffffffffffffffffffffffffffffffff167f9dbe7d9fdd28b9b1c2ffe79a40f7beff124537ed0d7a47555d009e0271fc613386604051808273ffffffffffffffffffffffffffffffffffffffff1673ffffffffffffffffffffffffffffffffffffffff16815260200191505060405180910390a450505050505050565b600060056006811115620035e157fe5b600160003373ffffffffffffffffffffffffffffffffffffffff1673ffffffffffffffffffffffffffffffffffffffff16815260200190815260200160002060020160149054906101000a900460ff1660068111156200363d57fe5b141515620036ff576040517f08c379a00000000000000000000000000000000000000000000000000000000081526004018080602001828103825260428152602001807f4f6e6c792057686f6c6573616c6572206f722063757272656e74206f776e657281526020017f206f66207061636b6167652063616e2063616c6c20746869732066756e63746981526020017f6f6e00000000000000000000000000000000000000000000000000000000000081525060600191505060405180910390fd5b600a60003373ffffffffffffffffffffffffffffffffffffffff1673ffffffffffffffffffffffffffffffffffffffff16815260200190815260200160002080549050905090565b6000600560068111156200375757fe5b600160003373ffffffffffffffffffffffffffffffffffffffff1673ffffffffffffffffffffffffffffffffffffffff16815260200190815260200160002060020160149054906101000a900460ff166006811115620037b357fe5b14151562003875576040517f08c379a00000000000000000000000000000000000000000000000000000000081526004018080602001828103825260428152602001807f4f6e6c792057686f6c6573616c6572206f722063757272656e74206f776e657281526020017f206f66207061636b6167652063616e2063616c6c20746869732066756e63746981526020017f6f6e00000000000000000000000000000000000000000000000000000000000081525060600191505060405180910390fd5b600a60003373ffffffffffffffffffffffffffffffffffffffff1673ffffffffffffffffffffffffffffffffffffffff16815260200190815260200160002082815481101515620038c257fe5b9060005260206000200160009054906101000a900473ffffffffffffffffffffffffffffffffffffffff169050919050565b600560068111156200390257fe5b600160003373ffffffffffffffffffffffffffffffffffffffff1673ffffffffffffffffffffffffffffffffffffffff16815260200190815260200160002060020160149054906101000a900460ff1660068111156200395e57fe5b14801562003a4f57508173ffffffffffffffffffffffffffffffffffffffff166301a9a23e6040518163ffffffff167c0100000000000000000000000000000000000000000000000000000000028152600401604080518083038186803b158015620039c957600080fd5b505afa158015620039de573d6000803e3d6000fd5b505050506040513d601f19601f82011682018060405250604081101562003a0457600080fd5b8101908091905050600160028110151562003a1b57fe5b602002015173ffffffffffffffffffffffffffffffffffffffff163373ffffffffffffffffffffffffffffffffffffffff16145b151562003aea576040517f08c379a000000000000000000000000000000000000000000000000000000000815260040180806020018281038252603e8152602001807f4f6e6c7920506861726d61206f722063757272656e74206f776e6572206f662081526020017f7061636b6167652063616e2063616c6c20746869732066756e6374696f6e000081525060400191505060405180910390fd5b6001600481111562003af857fe5b600481111562003b0457fe5b600b60008473ffffffffffffffffffffffffffffffffffffffff1673ffffffffffffffffffffffffffffffffffffffff16815260200190815260200160002060009054906101000a900460ff16600481111562003b5d57fe5b14151562003bd3576040517f08c379a000000000000000000000000000000000000000000000000000000000815260040180806020018281038252601a8152602001807f6d61646963696e65204d75737420626520617420506861726d6100000000000081525060200191505060405180910390fd5b80600481111562003be057fe5b600b60008473ffffffffffffffffffffffffffffffffffffffff1673ffffffffffffffffffffffffffffffffffffffff16815260200190815260200160002060006101000a81548160ff0219169083600481111562003c3b57fe5b02179055503373ffffffffffffffffffffffffffffffffffffffff167f778762ccb04f5a8838ed8914b13eb6f118224696959cbfa0cfea54133f76a7d58383604051808373ffffffffffffffffffffffffffffffffffffffff1673ffffffffffffffffffffffffffffffffffffffff1681526020018281526020019250505060405180910390a25050565b60006004600681111562003cd657fe5b600160003373ffffffffffffffffffffffffffffffffffffffff1673ffffffffffffffffffffffffffffffffffffffff16815260200190815260200160002060020160149054906101000a900460ff16600681111562003d3257fe5b14151562003dce576040517f08c379a00000000000000000000000000000000000000000000000000000000081526004018080602001828103825260288152602001807f4f6e6c792044697374726962757465722043616e2063616c6c2074686973206681526020017f756e6374696f6e2e00000000000000000000000000000000000000000000000081525060400191505060405180910390fd5b600860003373ffffffffffffffffffffffffffffffffffffffff1673ffffffffffffffffffffffffffffffffffffffff1681526020019081526020016000208281548110151562003e1b57fe5b9060005260206000200160009054906101000a900473ffffffffffffffffffffffffffffffffffffffff169050919050565b6004600681111562003e5b57fe5b600160003373ffffffffffffffffffffffffffffffffffffffff1673ffffffffffffffffffffffffffffffffffffffff16815260200190815260200160002060020160149054906101000a900460ff16600681111562003eb757fe5b14801562003fa857508273ffffffffffffffffffffffffffffffffffffffff166301a9a23e6040518163ffffffff167c0100000000000000000000000000000000000000000000000000000000028152600401604080518083038186803b15801562003f2257600080fd5b505afa15801562003f37573d6000803e3d6000fd5b505050506040513d601f19601f82011682018060405250604081101562003f5d57600080fd5b8101908091905050600160028110151562003f7457fe5b602002015173ffffffffffffffffffffffffffffffffffffffff163373ffffffffffffffffffffffffffffffffffffffff16145b151562004069576040517f08c379a00000000000000000000000000000000000000000000000000000000081526004018080602001828103825260438152602001807f4f6e6c79204469737472696275746572206f722063757272656e74206f776e6581526020017f72206f66207061636b6167652063616e2063616c6c20746869732066756e637481526020017f696f6e000000000000000000000000000000000000000000000000000000000081525060600191505060405180910390fd5b6000833384846200407962004338565b808573ffffffffffffffffffffffffffffffffffffffff1673ffffffffffffffffffffffffffffffffffffffff1681526020018473ffffffffffffffffffffffffffffffffffffffff1673ffffffffffffffffffffffffffffffffffffffff1681526020018373ffffffffffffffffffffffffffffffffffffffff1673ffffffffffffffffffffffffffffffffffffffff1681526020018273ffffffffffffffffffffffffffffffffffffffff1673ffffffffffffffffffffffffffffffffffffffff168152602001945050505050604051809103906000f08015801562004165573d6000803e3d6000fd5b509050600860003373ffffffffffffffffffffffffffffffffffffffff1673ffffffffffffffffffffffffffffffffffffffff1681526020019081526020016000208190806001815401808255809150509060018203906000526020600020016000909192909190916101000a81548173ffffffffffffffffffffffffffffffffffffffff021916908373ffffffffffffffffffffffffffffffffffffffff1602179055505080600960008673ffffffffffffffffffffffffffffffffffffffff1673ffffffffffffffffffffffffffffffffffffffff16815260200190815260200160002060006101000a81548173ffffffffffffffffffffffffffffffffffffffff021916908373ffffffffffffffffffffffffffffffffffffffff16021790555050505050565b828054600181600116156101000203166002900490600052602060002090601f016020900481019282601f10620042d257805160ff191683800117855562004303565b8280016001018555821562004303579182015b8281111562004302578251825591602001919060010190620042e5565b5b50905062004312919062004349565b5090565b604051610ac6806200437283390190565b604051610a308062004e3883390190565b6040516107b5806200586883390190565b6200436e91905b808211156200436a57600081600090555060010162004350565b5090565b9056fe608060405234801561001057600080fd5b5060405160c080610ac6833981018060405260c081101561003057600080fd5b81019080805190602001909291908051906020019092919080519060200190929190805190602001909291908051906020019092919080519060200190929190505050856000806101000a81548173ffffffffffffffffffffffffffffffffffffffff021916908373ffffffffffffffffffffffffffffffffffffffff16021790555085600560006101000a81548173ffffffffffffffffffffffffffffffffffffffff021916908373ffffffffffffffffffffffffffffffffffffffff16021790555084600181905550836002819055508260038190555081600460006101000a81548173ffffffffffffffffffffffffffffffffffffffff021916908373ffffffffffffffffffffffffffffffffffffffff16021790555080600660006101000a81548173ffffffffffffffffffffffffffffffffffffffff021916908373ffffffffffffffffffffffffffffffffffffffff160217905550505050505050610926806101a06000396000f3fe608060405260043610610078576000357c0100000000000000000000000000000000000000000000000000000000900463ffffffff16806301a9a23e1461007d5780633a3f3cc3146100d0578063638e9a3d14610121578063a19ffd6014610172578063d2f3fcc7146101e3578063e002c8a51461020e575b600080fd5b34801561008957600080fd5b506100926102ad565b6040518082600260200280838360005b838110156100bd5780820151818401526020810190506100a2565b5050505090500191505060405180910390f35b3480156100dc57600080fd5b5061011f600480360360208110156100f357600080fd5b81019080803573ffffffffffffffffffffffffffffffffffffffff16906020019092919050505061036b565b005b34801561012d57600080fd5b506101706004803603602081101561014457600080fd5b81019080803573ffffffffffffffffffffffffffffffffffffffff169060200190929190505050610461565b005b34801561017e57600080fd5b506101e16004803603604081101561019557600080fd5b81019080803573ffffffffffffffffffffffffffffffffffffffff169060200190929190803573ffffffffffffffffffffffffffffffffffffffff1690602001909291905050506106ef565b005b3480156101ef57600080fd5b506101f861084e565b6040518082815260200191505060405180910390f35b34801561021a57600080fd5b50610223610870565b604051808673ffffffffffffffffffffffffffffffffffffffff1673ffffffffffffffffffffffffffffffffffffffff1681526020018581526020018481526020018381526020018273ffffffffffffffffffffffffffffffffffffffff1673ffffffffffffffffffffffffffffffffffffffff1681526020019550505050505060405180910390f35b6102b56108d8565b6040805190810160405280600660009054906101000a900473ffffffffffffffffffffffffffffffffffffffff1673ffffffffffffffffffffffffffffffffffffffff1673ffffffffffffffffffffffffffffffffffffffff168152602001600760009054906101000a900473ffffffffffffffffffffffffffffffffffffffff1673ffffffffffffffffffffffffffffffffffffffff1673ffffffffffffffffffffffffffffffffffffffff16815250905090565b8073ffffffffffffffffffffffffffffffffffffffff16600760009054906101000a900473ffffffffffffffffffffffffffffffffffffffff1673ffffffffffffffffffffffffffffffffffffffff16141515610430576040517f08c379a000000000000000000000000000000000000000000000000000000000815260040180806020018281038252601d8152602001807f5468697320506861726d61206973206e6f74204173736f63696174656400000081525060200191505060405180910390fd5b60048081111561043c57fe5b600760146101000a81548160ff0219169083600481111561045957fe5b021790555050565b600460009054906101000a900473ffffffffffffffffffffffffffffffffffffffff1673ffffffffffffffffffffffffffffffffffffffff168173ffffffffffffffffffffffffffffffffffffffff1614151561054c576040517f08c379a000000000000000000000000000000000000000000000000000000000815260040180806020018281038252602d8152602001807f4f6e6c79204173736f636961746520536869707065722063616e2063616c6c2081526020017f746869732066756e6374696f6e0000000000000000000000000000000000000081525060400191505060405180910390fd5b6000600481111561055957fe5b600481111561056457fe5b600760149054906101000a900460ff16600481111561057f57fe5b1415156105f4576040517f08c379a000000000000000000000000000000000000000000000000000000000815260040180806020018281038252601c8152602001807f5061636b616765206d75737420626520617420537570706c6965722e0000000081525060200191505060405180910390fd5b6001600481111561060157fe5b600760146101000a81548160ff0219169083600481111561061e57fe5b0217905550600660009054906101000a900473ffffffffffffffffffffffffffffffffffffffff1673ffffffffffffffffffffffffffffffffffffffff16600460009054906101000a900473ffffffffffffffffffffffffffffffffffffffff1673ffffffffffffffffffffffffffffffffffffffff163073ffffffffffffffffffffffffffffffffffffffff167ff3ef229a52006ad83a5453cd9c02c79c841ccfdb65ad3f748788ab0ecf66296c600180604051808381526020018281526020019250505060405180910390a450565b8073ffffffffffffffffffffffffffffffffffffffff16600660009054906101000a900473ffffffffffffffffffffffffffffffffffffffff1673ffffffffffffffffffffffffffffffffffffffff161415156107da576040517f08c379a00000000000000000000000000000000000000000000000000000000081526004018080602001828103825260238152602001807f74686973204469737472696275746572206973206e6f74204173736f6369617481526020017f65642e000000000000000000000000000000000000000000000000000000000081525060400191505060405180910390fd5b81600760006101000a81548173ffffffffffffffffffffffffffffffffffffffff021916908373ffffffffffffffffffffffffffffffffffffffff1602179055506003600481111561082857fe5b600760146101000a81548160ff0219169083600481111561084557fe5b02179055505050565b6000600760149054906101000a900460ff16600481111561086b57fe5b905090565b6000806000806000600560009054906101000a900473ffffffffffffffffffffffffffffffffffffffff16600154600254600354600460009054906101000a900473ffffffffffffffffffffffffffffffffffffffff16945094509450945094509091929394565b604080519081016040528060029060208202803883398082019150509050509056fea165627a7a72305820595fa59eb612cca5be90deeb06b45a8acad008ef2eac6138c424f438ad3ecb960029608060405234801561001057600080fd5b5060405160e080610a30833981018060405260e081101561003057600080fd5b8101908080519060200190929190805190602001909291908051906020019092919080519060200190929190805190602001909291908051906020019092919080519060200190929190505050866000806101000a81548173ffffffffffffffffffffffffffffffffffffffff021916908373ffffffffffffffffffffffffffffffffffffffff16021790555030600160006101000a81548173ffffffffffffffffffffffffffffffffffffffff021916908373ffffffffffffffffffffffffffffffffffffffff1602179055508560028190555084600381905550836004819055508260058190555081600660006101000a81548173ffffffffffffffffffffffffffffffffffffffff021916908373ffffffffffffffffffffffffffffffffffffffff16021790555080600760006101000a81548173ffffffffffffffffffffffffffffffffffffffff021916908373ffffffffffffffffffffffffffffffffffffffff16021790555086600860006101000a81548173ffffffffffffffffffffffffffffffffffffffff021916908373ffffffffffffffffffffffffffffffffffffffff160217905550600060028111156101ea57fe5b600860146101000a81548160ff0219169083600281111561020757fe5b02179055505050505050505061080e806102226000396000f3fe608060405260043610610062576000357c0100000000000000000000000000000000000000000000000000000000900463ffffffff1680633b205a7d1461006757806352b9996814610092578063638e9a3d146100e3578063d02eee2314610134575b600080fd5b34801561007357600080fd5b5061007c61020d565b6040518082815260200191505060405180910390f35b34801561009e57600080fd5b506100e1600480360360208110156100b557600080fd5b81019080803573ffffffffffffffffffffffffffffffffffffffff16906020019092919050505061022f565b005b3480156100ef57600080fd5b506101326004803603602081101561010657600080fd5b81019080803573ffffffffffffffffffffffffffffffffffffffff1690602001909291905050506104bd565b005b34801561014057600080fd5b5061014961074b565b604051808881526020018781526020018681526020018581526020018473ffffffffffffffffffffffffffffffffffffffff1673ffffffffffffffffffffffffffffffffffffffff1681526020018373ffffffffffffffffffffffffffffffffffffffff1673ffffffffffffffffffffffffffffffffffffffff1681526020018273ffffffffffffffffffffffffffffffffffffffff1673ffffffffffffffffffffffffffffffffffffffff16815260200197505050505050505060405180910390f35b6000600860149054906101000a900460ff16600281111561022a57fe5b905090565b600760009054906101000a900473ffffffffffffffffffffffffffffffffffffffff1673ffffffffffffffffffffffffffffffffffffffff168173ffffffffffffffffffffffffffffffffffffffff1614151561031a576040517f08c379a00000000000000000000000000000000000000000000000000000000081526004018080602001828103825260328152602001807f4f6e6c79204173736f6369617465204d616e7566616374757265722063616e2081526020017f63616c6c20746869732066756e6374696f6e000000000000000000000000000081525060400191505060405180910390fd5b6001600281111561032757fe5b600281111561033257fe5b600860149054906101000a900460ff16600281111561034d57fe5b1415156103c2576040517f08c379a00000000000000000000000000000000000000000000000000000000081526004018080602001828103825260198152602001807f50726f64756374206e6f74207069636b6564207570207965740000000000000081525060200191505060405180910390fd5b6002808111156103ce57fe5b600860146101000a81548160ff021916908360028111156103eb57fe5b0217905550600760009054906101000a900473ffffffffffffffffffffffffffffffffffffffff1673ffffffffffffffffffffffffffffffffffffffff16600660009054906101000a900473ffffffffffffffffffffffffffffffffffffffff1673ffffffffffffffffffffffffffffffffffffffff163073ffffffffffffffffffffffffffffffffffffffff167f7e89c4b1a4e2b51aae84eb1f90e8a34cb792ece5ac5cb63db4830c891220b28d60016002604051808381526020018281526020019250505060405180910390a450565b600660009054906101000a900473ffffffffffffffffffffffffffffffffffffffff1673ffffffffffffffffffffffffffffffffffffffff168173ffffffffffffffffffffffffffffffffffffffff161415156105a8576040517f08c379a000000000000000000000000000000000000000000000000000000000815260040180806020018281038252602d8152602001807f4f6e6c79204173736f636961746520536869707065722063616e2063616c6c2081526020017f746869732066756e6374696f6e0000000000000000000000000000000000000081525060400191505060405180910390fd5b600060028111156105b557fe5b60028111156105c057fe5b600860149054906101000a900460ff1660028111156105db57fe5b141515610650576040517f08c379a000000000000000000000000000000000000000000000000000000000815260040180806020018281038252601c8152602001807f5061636b616765206d75737420626520617420537570706c6965722e0000000081525060200191505060405180910390fd5b6001600281111561065d57fe5b600860146101000a81548160ff0219169083600281111561067a57fe5b0217905550600760009054906101000a900473ffffffffffffffffffffffffffffffffffffffff1673ffffffffffffffffffffffffffffffffffffffff16600660009054906101000a900473ffffffffffffffffffffffffffffffffffffffff1673ffffffffffffffffffffffffffffffffffffffff163073ffffffffffffffffffffffffffffffffffffffff167f7e89c4b1a4e2b51aae84eb1f90e8a34cb792ece5ac5cb63db4830c891220b28d600180604051808381526020018281526020019250505060405180910390a450565b6000806000806000806000600254600354600454600554600660009054906101000a900473ffffffffffffffffffffffffffffffffffffffff16600760009054906101000a900473ffffffffffffffffffffffffffffffffffffffff16600860009054906101000a900473ffffffffffffffffffffffffffffffffffffffff1696509650965096509650965096509091929394959656fea165627a7a72305820155af452230af5d75182844ccdc6b08b67aed95db7067490bcd77b4bb91299350029608060405234801561001057600080fd5b506040516080806107b58339810180604052608081101561003057600080fd5b8101908080519060200190929190805190602001909291908051906020019092919080519060200190929190505050826000806101000a81548173ffffffffffffffffffffffffffffffffffffffff021916908373ffffffffffffffffffffffffffffffffffffffff16021790555083600160006101000a81548173ffffffffffffffffffffffffffffffffffffffff021916908373ffffffffffffffffffffffffffffffffffffffff16021790555082600260006101000a81548173ffffffffffffffffffffffffffffffffffffffff021916908373ffffffffffffffffffffffffffffffffffffffff16021790555081600360006101000a81548173ffffffffffffffffffffffffffffffffffffffff021916908373ffffffffffffffffffffffffffffffffffffffff16021790555080600460006101000a81548173ffffffffffffffffffffffffffffffffffffffff021916908373ffffffffffffffffffffffffffffffffffffffff160217905550600060028111156101b057fe5b600460146101000a81548160ff021916908360028111156101cd57fe5b0217905550505050506105d0806101e56000396000f3fe608060405260043610610057576000357c0100000000000000000000000000000000000000000000000000000000900463ffffffff16806332a60e001461005c578063d2f3fcc7146100cd578063d39ff0e7146100f8575b600080fd5b34801561006857600080fd5b506100cb6004803603604081101561007f57600080fd5b81019080803573ffffffffffffffffffffffffffffffffffffffff169060200190929190803573ffffffffffffffffffffffffffffffffffffffff169060200190929190505050610169565b005b3480156100d957600080fd5b506100e2610339565b6040518082815260200191505060405180910390f35b34801561010457600080fd5b506101676004803603604081101561011b57600080fd5b81019080803573ffffffffffffffffffffffffffffffffffffffff169060200190929190803573ffffffffffffffffffffffffffffffffffffffff16906020019092919050505061035b565b005b600460009054906101000a900473ffffffffffffffffffffffffffffffffffffffff1673ffffffffffffffffffffffffffffffffffffffff168173ffffffffffffffffffffffffffffffffffffffff16141515610254576040517f08c379a00000000000000000000000000000000000000000000000000000000081526004018080602001828103825260308152602001807f4f6e6c79204173736f6369617465642072656365697665722063616e2063616c81526020017f6c20746869732066756e6374696f6e2e0000000000000000000000000000000081525060400191505060405180910390fd5b60028081111561026057fe5b600460146101000a81548160ff0219169083600281111561027d57fe5b02179055508173ffffffffffffffffffffffffffffffffffffffff16633a3f3cc3826040518263ffffffff167c0100000000000000000000000000000000000000000000000000000000028152600401808273ffffffffffffffffffffffffffffffffffffffff1673ffffffffffffffffffffffffffffffffffffffff168152602001915050600060405180830381600087803b15801561031d57600080fd5b505af1158015610331573d6000803e3d6000fd5b505050505050565b6000600460149054906101000a900460ff16600281111561035657fe5b905090565b600360009054906101000a900473ffffffffffffffffffffffffffffffffffffffff1673ffffffffffffffffffffffffffffffffffffffff168173ffffffffffffffffffffffffffffffffffffffff16141515610446576040517f08c379a000000000000000000000000000000000000000000000000000000000815260040180806020018281038252602f8152602001807f4f6e6c79204173736f63696174656420736869707065722063616e2063616c6c81526020017f20746869732066756e6374696f6e2e000000000000000000000000000000000081525060400191505060405180910390fd5b6001600281111561045357fe5b600460146101000a81548160ff0219169083600281111561047057fe5b02179055508173ffffffffffffffffffffffffffffffffffffffff1663a19ffd60600460009054906101000a900473ffffffffffffffffffffffffffffffffffffffff16600260009054906101000a900473ffffffffffffffffffffffffffffffffffffffff166040518363ffffffff167c0100000000000000000000000000000000000000000000000000000000028152600401808373ffffffffffffffffffffffffffffffffffffffff1673ffffffffffffffffffffffffffffffffffffffff1681526020018273ffffffffffffffffffffffffffffffffffffffff1673ffffffffffffffffffffffffffffffffffffffff16815260200192505050600060405180830381600087803b15801561058857600080fd5b505af115801561059c573d6000803e3d6000fd5b50505050505056fea165627a7a72305820904ce7440ab976959804dee5bf208a837ef6375cd39497e956915d66e567b0d30029a165627a7a72305820f63b90587212479e9c93118f834bb5273d63a4e1f7bcda18e25f14390a14aebf0029",
  "source": "pragma solidity >=0.4.25 < 0.6.0;\r\n\r\nimport './Medicine.sol';\r\nimport './Distributer.sol';\r\nimport './RawMaterial.sol';\r\n\r\ncontract SupplyChain {\r\n     address public Owner;\r\n\r\n    constructor () public {\r\n        Owner = msg.sender;\r\n    }\r\n/********************************************** Owner Section *********************************************/\r\n\r\n    modifier onlyOwner() {\r\n        require(\r\n            msg.sender == Owner,\r\n            \"Only owner can call this function.\"\r\n        );\r\n        _;\r\n    }\r\n\r\n    enum roles {\r\n        norole,\r\n        supplier,\r\n        transporter,\r\n        manufacturer,\r\n        distributer,\r\n        pharma,\r\n        revoke\r\n    }\r\n\r\n    event UserRegister(address indexed EthAddress, bytes32 Name);\r\n    event UserRoleRevoked(address indexed EthAddress, bytes32 Name, uint Role);\r\n    event UserRoleRessigne(address indexed EthAddress, bytes32 Name, uint Role);\r\n\r\n    function registerUser(address EthAddress,bytes32 Name,bytes32 Location,uint Role) public onlyOwner{\r\n        require(UsersDetails[EthAddress].role == roles.norole, \"User Already registered\");\r\n        UsersDetails[EthAddress].name = Name;\r\n        UsersDetails[EthAddress].location = Location;\r\n        UsersDetails[EthAddress].ethAddress = EthAddress;\r\n        UsersDetails[EthAddress].role = roles(Role);\r\n        users.push(EthAddress);\r\n        emit UserRegister(EthAddress, Name);\r\n    }\r\n    \r\n    function revokeRole(address userAddress) public onlyOwner {\r\n        require(UsersDetails[userAddress].role != roles.norole, \"User not registered\");\r\n        emit UserRoleRevoked(userAddress, UsersDetails[userAddress].name,uint(UsersDetails[userAddress].role));\r\n        UsersDetails[userAddress].role = roles(6);\r\n    }\r\n    \r\n    function reassigneRole(address userAddress, uint Role) public onlyOwner {\r\n        require(UsersDetails[userAddress].role != roles.norole, \"User not registered\");\r\n        UsersDetails[userAddress].role = roles(Role);\r\n        emit UserRoleRessigne(userAddress, UsersDetails[userAddress].name,uint(UsersDetails[userAddress].role));\r\n    }\r\n\r\n    /********************************************** User Section **********************************************/\r\n    struct UserInfo {\r\n        bytes32 name;\r\n        bytes32 location;\r\n        address ethAddress;\r\n        roles role;\r\n    }\r\n\r\n    \r\n    mapping(address => UserInfo) UsersDetails;\r\n    address[] users;\r\n\r\n    function getUserInfo(address User) public view returns(bytes32 name,bytes32 location,address ethAddress,roles role) {\r\n        return (\r\n            UsersDetails[User].name,\r\n            UsersDetails[User].location,\r\n            UsersDetails[User].ethAddress,\r\n            UsersDetails[User].role);\r\n    }\r\n\r\n    \r\n    function getUsersCount() public view returns(uint count){\r\n        return users.length;\r\n    }\r\n\r\n    function getUserbyIndex(uint index) public view returns(bytes32 name,bytes32 location,address ethAddress,roles role) {\r\n        return getUserInfo(users[index]);\r\n    }\r\n\r\n    /********************************************** Supplier Section ******************************************/\r\n\r\n    mapping(address => address[]) supplierRawProductInfo;\r\n    event RawSupplyInit(\r\n        address indexed ProductID,\r\n        address indexed Supplier,\r\n        address Shipper,\r\n        address indexed Receiver\r\n    );\r\n\r\n    function createRawPackage(\r\n        bytes32 Des,\r\n        bytes32 FN,\r\n        bytes32 Loc,\r\n        uint Quant,\r\n        address Shpr,\r\n        address Rcvr\r\n        ) public {\r\n        require(\r\n            UsersDetails[msg.sender].role == roles.supplier,\r\n            \"Only Supplier Can call this function \"\r\n        );\r\n        RawMaterial rawData = new RawMaterial(\r\n            msg.sender,\r\n            Des,\r\n            FN,\r\n            Loc,\r\n            Quant,\r\n            Shpr,\r\n            Rcvr\r\n            );\r\n        supplierRawProductInfo[msg.sender].push(address(rawData));\r\n        emit RawSupplyInit(address(rawData), msg.sender, Shpr, Rcvr);\r\n    }\r\n\r\n    function getPackagesCountS() public view returns (uint count){\r\n        require(\r\n            UsersDetails[msg.sender].role == roles.supplier,\r\n            \"Only Supplier Can call this function \"\r\n        );\r\n        return supplierRawProductInfo[msg.sender].length;\r\n    }\r\n\r\n    function getPackageIdByIndexS(uint index) public view returns(address packageID) {\r\n        require(\r\n            UsersDetails[msg.sender].role == roles.supplier,\r\n            \"Only Supplier Can call this function \"\r\n        );\r\n        return supplierRawProductInfo[msg.sender][index];\r\n    }\r\n\r\n    /********************************************** Transporter Section ******************************************/\r\n\r\n    function loadConsingment(\r\n        address pid, //Package or Batch ID\r\n        uint transportertype,\r\n        address cid\r\n        ) public {\r\n        require(\r\n            UsersDetails[msg.sender].role == roles.transporter,\r\n            \"Only Transporter can call this function\"\r\n        );\r\n        require(\r\n            transportertype > 0,\r\n            \"Transporter Type must be define\"\r\n        );\r\n\r\n        if(transportertype == 1) {  // Supplier to Manufacturer\r\n            RawMaterial(pid).pickPackage(msg.sender);\r\n        } else if(transportertype == 2) {   // Manufacturer to Distributer\r\n            Medicine(pid).pickPackage(msg.sender);\r\n        // } else if(transportertype == 3) {   // Wholesaler to Distributer\r\n        //     MedicineW_D(cid).pickWD(pid,msg.sender);\r\n        } else if(transportertype == 3) {   // Distrubuter to Pharma\r\n            Distributer(cid).pickDP(pid,msg.sender);\r\n        }\r\n    }\r\n\r\n    /********************************************** Manufacturer Section ******************************************/\r\n    \r\n    mapping(address => address[]) RawPackagesAtManufacturer;\r\n    mapping(address => string) Hash;\r\n\r\n    function  rawPackageReceived(address pid) public {\r\n        require(\r\n            UsersDetails[msg.sender].role == roles.manufacturer,\r\n            \"Only manufacturer can call this function\"\r\n        );\r\n\r\n        RawMaterial(pid).receivedPackage(msg.sender);\r\n        RawPackagesAtManufacturer[msg.sender].push(pid);\r\n    }\r\n\r\n    function getPackagesCountM() public view returns(uint count){\r\n        require(\r\n            UsersDetails[msg.sender].role == roles.manufacturer,\r\n            \"Only manufacturer can call this function\"\r\n        );\r\n        return RawPackagesAtManufacturer[msg.sender].length;\r\n    }\r\n\r\n    function getPackageIDByIndexM(uint index) public view returns(address BatchID){\r\n        require(\r\n            UsersDetails[msg.sender].role == roles.manufacturer,\r\n            \"Only manufacturer can call this function\"\r\n        );\r\n        return RawPackagesAtManufacturer[msg.sender][index];\r\n    }\r\n\r\n    mapping(address => address[]) ManufactureredMedicineBatches;\r\n    event MedicineNewBatch(\r\n        address indexed BatchId,\r\n        address indexed Manufacturer,\r\n        address shipper,\r\n        address indexed Receiver\r\n    );\r\n\r\n    function manufacturMadicine(bytes32 Des,bytes32 RM,uint Quant,address Shpr,address Rcvr) public {\r\n        require(\r\n            UsersDetails[msg.sender].role == roles.manufacturer,\r\n            \"Only manufacturer can call this function\"\r\n        );\r\n\r\n        Medicine m = new Medicine(\r\n            msg.sender,\r\n            Des,\r\n            RM,\r\n            Quant,\r\n            Shpr,\r\n            Rcvr\r\n        );\r\n\r\n        ManufactureredMedicineBatches[msg.sender].push(address(m));\r\n        emit MedicineNewBatch(address(m), msg.sender, Shpr, Rcvr);\r\n    }\r\n\r\n    function getBatchesCountM() public view returns (uint count){\r\n        require(\r\n            UsersDetails[msg.sender].role == roles.manufacturer,\r\n            \"Only Manufacturer Can call this function.\"\r\n        );\r\n        return ManufactureredMedicineBatches[msg.sender].length;\r\n    }\r\n\r\n    function getBatchIdByIndexM(uint index) public view returns(address packageID) {\r\n        require(\r\n            UsersDetails[msg.sender].role == roles.manufacturer,\r\n            \"Only Manufacturer Can call this function.\"\r\n        );\r\n        return ManufactureredMedicineBatches[msg.sender][index];\r\n    }\r\n\r\n    function setHash(string memory _hash) public {\r\n        Hash[msg.sender] = _hash;\r\n    }\r\n\r\n    function getHash() public view returns(string memory){\r\n        return Hash[msg.sender];\r\n    }\r\n\r\n    /********************************************** Distributer Section ******************************************/\r\n    mapping(address => address[]) MedicineBatchAtDistributer;\r\n    mapping(address => address[]) MedicineDtoP;\r\n\r\n    mapping(address => address) MedicineDtoPTxContract;\r\n\r\n    function transferMadicineDtoP(\r\n        address BatchID,\r\n        address Shipper,\r\n        address Receiver\r\n    ) public {\r\n        require(\r\n            UsersDetails[msg.sender].role == roles.distributer &&\r\n            msg.sender == Medicine(BatchID).getWDP()[1],\r\n            \"Only Distributer or current owner of package can call this function\"\r\n        );\r\n        Distributer dp = new Distributer(\r\n            BatchID,\r\n            msg.sender,\r\n            Shipper,\r\n            Receiver\r\n        );\r\n        MedicineDtoP[msg.sender].push(address(dp));\r\n        MedicineDtoPTxContract[BatchID] = address(dp);\r\n    }\r\n\r\n    function getBatchesCountDP() public view returns (uint count){\r\n        require(\r\n            UsersDetails[msg.sender].role == roles.distributer,\r\n            \"Only Distributer Can call this function.\"\r\n        );\r\n        return MedicineDtoP[msg.sender].length;\r\n    }\r\n\r\n    function getBatchIdByIndexDP(uint index) public view returns(address packageID) {\r\n        require(\r\n            UsersDetails[msg.sender].role == roles.distributer,\r\n            \"Only Distributer Can call this function.\"\r\n        );\r\n        return MedicineDtoP[msg.sender][index];\r\n    }\r\n\r\n    function getSubContractDP(address BatchID) public view returns (address SubContractDP) {\r\n        // require(\r\n        //     UsersDetails[msg.sender].role == roles.distributer,\r\n        //     \"Only Distributer Can call this function.\"\r\n        // );\r\n        return MedicineDtoPTxContract[BatchID];\r\n    }\r\n\r\n    /********************************************** Pharma Section ******************************************/\r\n    \r\n    mapping(address => address[]) MedicineBatchAtPharma;\r\n\r\n    \r\n    function medicineRecievedAtPharma(address batchid,address cid) public {\r\n        require(\r\n            UsersDetails[msg.sender].role == roles.pharma,\r\n            \"Only Pharma Can call this function.\"\r\n        );\r\n        Distributer(cid).recieveDP(batchid, msg.sender);\r\n        MedicineBatchAtPharma[msg.sender].push(batchid);\r\n        sale[batchid] = salestatus(1);\r\n    }\r\n\r\n    enum salestatus {\r\n        notfound,\r\n        atpharma,\r\n        sold,\r\n        expire,\r\n        damaged\r\n    }\r\n\r\n    mapping(address => salestatus) sale;\r\n\r\n    event MedicineStatus(\r\n        address BatchID,\r\n        address indexed Pharma,\r\n        uint status\r\n    );\r\n\r\n    function updateSaleStatus(\r\n        address BatchID,\r\n        uint Status\r\n    ) public {\r\n        require(\r\n            UsersDetails[msg.sender].role == roles.pharma &&\r\n            msg.sender == Medicine(BatchID).getWDP()[1],\r\n            \"Only Pharma or current owner of package can call this function\"\r\n        );\r\n        require(sale[BatchID] == salestatus(1), \"madicine Must be at Pharma\");\r\n        sale[BatchID] = salestatus(Status);\r\n\r\n        emit MedicineStatus(BatchID, msg.sender, Status);\r\n    }\r\n\r\n    function salesInfo(\r\n        address BatchID\r\n    ) public\r\n    view\r\n    returns(\r\n        uint Status\r\n    ){\r\n        return uint(sale[BatchID]);\r\n    }\r\n\r\n    function getBatchesCountP() public view returns(uint count){\r\n        require(\r\n            UsersDetails[msg.sender].role == roles.pharma,\r\n            \"Only Wholesaler or current owner of package can call this function\"\r\n        );\r\n        return  MedicineBatchAtPharma[msg.sender].length;\r\n    }\r\n\r\n    function getBatchIdByIndexP(uint index) public view returns(address BatchID){\r\n        require(\r\n            UsersDetails[msg.sender].role == roles.pharma,\r\n            \"Only Wholesaler or current owner of package can call this function\"\r\n        );\r\n        return MedicineBatchAtPharma[msg.sender][index];\r\n    }\r\n\r\n}",
  "sourcePath": "C:/Documents/GitHub/BETA-TESTERS/Web/src/contracts/SupplyChain.sol",
  "compiler": {
    "name": "solc",
    "version": "0.5.0+commit.1d4f565a.Emscripten.clang"
  },
  "schemaVersion": "3.0.2",
  "updatedAt": "2019-10-20T00:20:58.194Z",
  "devdoc": {
    "methods": {}
  },
  "userdoc": {
    "methods": {
      "loadConsingment(address,uint256,address)": {
        "notice": "******************************************** Transporter Section *****************************************"
      }
    }
  }
}